S015000046696E616C5F50726F6A6563742E73726563EF
S11300000C9437000C9454000C9454000C94540039
S11300100C94650C0C948E0C0C9454000C94B60B3C
S11300200C94DF0B0C94080C0C94FD0A0C94260B16
S11300300C9454000C94F60C0C941F0D0C94480D65
S11300400C9454000C9454000C9454000C945400DC
S11300500C9454001F053F0549058D05370683069A
S11300605A07F505280732073F075A07470711249F
S11300701FBECFE5D8E0DEBFCDBF17E0A0E6B0E0FD
S1130080EAEEF1E202C005900D92A83FB107D9F75C
S113009028E0A8EFB7E001C01D92A632B207E1F74D
S11300A00E94450A0C94F3100C9400003E9A3F9869
S11300B03D983598309A319A329A379A0895611555
S11300C0710589F0883078F497B1907E97B997B12B
S11300D0892B87B9369A349BFECF349A84B195B173
S11300E0FB0191838083089541E063E080E00C94F8
S11300F01B0140E063E080E00C941B0168EF77E0B3
S113010081E00E945F002091F8073091F907A8E888
S1130110B3E10E94D910DC01CB012AE0B695A79582
S1130120979587952A95D1F7BC01603D87E07807BC
S113013038F441E062E080E00E94AE0040E009C093
S1130140613A7F4050F041E062E080E00E94AE00FE
S113015041E062E080E00C941B010895843008F0D3
S113016069C0683008F066C08230A9F1833009F4B0
S11301704AC08130C1F0413049F42AB381E090E0B3
S113018001C0880F6A95EAF7822B0BC0411152C057
S11301902AB381E090E001C0880F6A95EAF7809560
S11301A082238ABB0895413049F427B381E090E06B
S11301B001C0880F6A95EAF7822B0BC041113AC03F
S11301C027B381E090E001C0880F6A95EAF7809533
S11301D0822387BB0895413049F424B381E090E041
S11301E001C0880F6A95EAF7822B0BC0411122C027
S11301F024B381E090E001C0880F6A95EAF7809506
S1130200822384BB0895413049F421B381E090E016
S113021001C0880F6A95EAF7822B0BC041110AC00E
S113022021B381E090E001C0880F6A95EAF78095D8
S1130230822381BB0895843008F069C0683008F0D7
S113024066C08230A9F1833009F44AC08130C1F01C
S1130250413049F42BB381E090E001C0880F6A95E6
S1130260EAF7822B0BC0411152C02BB381E090E01E
S113027001C0880F6A95EAF7809582238BBB0895A5
S1130280413049F428B381E090E001C0880F6A95B9
S1130290EAF7822B0BC041113AC028B381E090E009
S11302A001C0880F6A95EAF78095822388BB089578
S11302B0413049F425B381E090E001C0880F6A958C
S11302C0EAF7822B0BC0411122C025B381E090E0F4
S11302D001C0880F6A95EAF78095822385BB08954B
S11302E0413049F422B381E090E001C0880F6A955F
S11302F0EAF7822B0BC041110AC022B381E090E0DF
S113030001C0880F6A95EAF78095822382BB08951D
S11303104115510509F45BC0843008F058C06830B9
S113032008F055C0823099F1833009F444C081301B
S1130330D1F089B390E0062E02C0959587950A9472
S1130340E2F780FF04C081E0FA018083089589B355
S113035090E002C0959587956A95E2F780FD37C0D5
S1130360FA011082089586B390E0062E02C0959596
S113037087950A94E2F780FDE6CF86B390E002C049
S1130380959587956A95E2F780FFEACF089583B340
S113039090E0062E02C0959587950A94E2F780FDB9
S11303A0D2CF83B390E002C0959587956A95E2F722
S11303B080FFD6CF089580B390E0062E02C09595B5
S11303C087950A94E2F780FDBECF80B3C1CF08952C
S11303D04115510509F45BC0843008F058C06830F9
S11303E008F055C0823099F1833009F444C081305B
S11303F0D1F08BB390E0062E02C0959587950A94B0
S1130400E2F780FF04C081E0FA01808308958BB392
S113041090E002C0959587956A95E2F780FD37C014
S1130420FA011082089588B390E0062E02C09595D3
S113043087950A94E2F780FDE6CF88B390E002C086
S1130440959587956A95E2F780FFEACF089585B37D
S113045090E0062E02C0959587950A94E2F780FDF8
S1130460D2CF85B390E002C0959587956A95E2F75F
S113047080FFD6CF089582B390E0062E02C09595F2
S113048087950A94E2F780FDBECF82B3C1CF089569
S1130490EF92FF920F931F93CF93DF93843010F565
S11304A0653000F54031F0F4D82FE12CF12CC62F43
S11304B0042F10E0C8010E2C02C0959587950A946C
S11304C0E2F780FF02C041E001C040E06C2F8D2FB5
S11304D00E941B018FEFE81AF80ACF5F84E0E81648
S11304E0F10441F7DF91CF911F910F91FF90EF90AD
S11304F00895843008F058C0683008F055C0823040
S113050061F18330F1F18130A1F08AB390E0062EDD
S113051002C0959587950A94E2F780FD45C02BB3F8
S113052081E090E001C0880F6A95EAF7822B8BBBCB
S1130530089587B390E0062E02C0959587950A9496
S1130540E2F780FD31C028B381E090E001C0880F5C
S11305506A95EAF7822B88BB089584B390E0062E4F
S113056002C0959587950A94E2F780FD1DC025B3D6
S113057081E090E001C0880F6A95EAF7822B85BB81
S1130580089581B390E0062E02C0959587950A944C
S1130590E2F780FD09C022B381E090E001C0880F3A
S11305A06A95EAF7822B82BB08954115510509F437
S11305B05BC0843008F058C0683008F055C0823001
S11305C099F1833009F444C08130D1F08AB390E0CA
S11305D0062E02C0959587950A94E2F780FF04C021
S11305E081E0FA01808308958AB390E002C0959572
S11305F087956A95E2F780FD37C0FA011082089565
S113060087B390E0062E02C0959587950A94E2F789
S113061080FDE6CF87B390E002C0959587956A95F3
S1130620E2F780FFEACF089584B390E0062E02C07B
S1130630959587950A94E2F780FDD2CF84B390E034
S113064002C0959587956A95E2F780FFD6CF089505
S113065081B390E0062E02C0959587950A94E2F73F
S113066080FDBECF81B3C1CF08958FB780688FBF9F
S1130670089581E790E00E94C70C8FE890E00E9403
S1130680C70C8DEB90E00E94C70C81E08093FE07BD
S1130690089562E382E390E00E94F30761E383E359
S11306A090E00E94F30762E384E390E00E94F30782
S11306B063E385E390E00E94F30761E08AE090E061
S11306C00E94F30761E080E590E00C94F307CF9279
S11306D0DF92EF92FF920F931F93CF93DF9300D09B
S11306E01F92CDB7DEB71B821A8210910F0811300A
S11306F051F5BE016D5F7F4F82E390E00E94FF07DA
S1130700909105088B81981348C020E0C22E28E000
S1130710D22E33E3E32EF12CBE016E5F7F4FC7016F
S11307200E94FF07F60191916F018A81981719F0D1
S113073081ED90E058C0FFEFEF1AFF0A26E3E216BE
S1130740F10451F753C010910E08113009F049C05B
S11307501982BE016F5F7F4F8AE090E00E94FF071D
S113076096E3F92EE12C01E089810817A0F434E026
S1130770039FC0011124BE016D5F7F4FC2960E948A
S1130780FF07909105088B81981301C0EF2C0F5F30
S113079084E0F80EE9CFE11003C08AEE90E023C0B4
S11307A080E0C82E88E0D82E8E2D90E0FC01EF5F0B
S11307B0F7407F01BE016E5F7F4FC7018C0D9D1D09
S11307C00E94FF07F60191916F018A81981719F031
S11307D083E091E008C0F3E0CF16F8E0DF0651F7BC
S11307E005C08CE191E00E94C70C12E0812F0F90AC
S11307F00F900F90DF91CF911F910F91FF90EF9089
S1130800DF90CF90089580910F08089580E391E0E0
S11308100E94C70C89E391E00E94C70C8CE591E02B
S11308200E94C70C85E691E00E94C70C8EE691E019
S11308300E94C70C8BE791E00E94C70C8BE891E003
S11308400C94C70C87E991E00E94C70C82EC91E0FC
S11308500E94C70C8CEC91E00E94C70C86ED91E0DD
S11308600E94C70C80EE91E00E94C70C8AEE91E0D2
S11308700E94C70C84EF91E00C94C70C1F93CF9394
S1130880DF9300D0CDB7DEB71A82BE016E5F7F4F13
S11308908AE090E00E94FF07198211E08A8118170C
S11308A0B8F424E0129FC0011124BE016F5F7F4F92
S11308B0C2960E94FF07909105088981981306C08B
S11308C084E092E00E94C70C81E003C01F5FE6CF82
S11308D082E00F900F90DF91CF911F910895CF92F6
S11308E0DF92EF92FF920F931F93CF93DF931F92A8
S11308F0CDB7DEB71982BE016F5F7F4F8AE090E00B
S11309000E94FF070981000F000F82E3800F6091AE
S1130910050890E00E94F3070D5C80E0C82E88E093
S1130920D82EE12CF12C10E0F60161916F01C80181
S11309308E0D9F1D0E94F307FFEFEF1AFF0A83E05D
S1130940E816F10489F769816F5F69838AE090E0B2
S11309500E94F30780E292E00E94C70C0F90DF919F
S1130960CF911F910F91FF90EF90DF90CF9008955A
S1130970EF92FF920F931F93CF93DF9300D01F92B8
S1130980CDB7DEB71B821A82BE016D5F7F4F8AE04E
S113099090E00E94FF0706E311E08B81181790F5A1
S11309A0BE016E5F7F4F802F90E00E94FF0784E0BE
S11309B0800F209105089A81291719F01F5F082FCD
S11309C0ECCF1123F9F01982011BE02EE10E8B818B
S11309D0212F30E044E0849FC001112428173907F7
S11309E074F4F12CBE016F5F7F4FC70104960E941F
S11309F0FF076981C7010E94F3071F5FE6CF89E300
S1130A0092E002C084E592E00E94C70C0F900F9020
S1130A100F90DF91CF911F910F91FF90EF90089568
S1130A20CF93E091FE078E2F90E0FC013197ED30DB
S1130A30F10508F03FC2E65DFF4F0C94D3108BE044
S1130A4098E00E94DC0C80910B08813331F481E042
S1130A5080930F088BE692E007C0823369F481E04B
S1130A6080930E0886E992E00E94C70C88E792E022
S1130A700E94C70C82E01CC28CE191E0AEC085E00C
S1130A8098E00E94DC0C82EA92E00E94C70C83E0AA
S1130A900FC280E098E00E94DC0C0E946703813062
S1130AA099F480910F08813021F487E080930F0836
S1130AB007C080910E08813019F487E080930E08F6
S1130AC00E94060484E00CC08091FC078F5F809331
S1130AD0FC07833021F08EEB92E00E94C70C82E089
S1130AE08093FE078091FC07833009F0E3C10E94E4
S1130AF074002FEF8BE792E9215080409040E1F79A
S1130B0000C000000E9479000E94390310920F086F
S1130B1010920E081092FC07CDC18BE098E00E9461
S1130B20DC0C80910B088133D1F480910F0887305D
S1130B3071F48AED92E00E94C70C8FE093E00E946A
S1130B40C70C8DE193E00E94C70C88E0B1C180918D
S1130B500E08873009F0AEC18CE293E019C08233ED
S1130B6021F40E94220485E0A3C18333B1F480916F
S1130B700F08873031F48AE593E00E94C70C89E0BE
S1130B8097C180910E08873009F094C181E893E001
S1130B900E94C70CCF910C940604843391F4809185
S1130BA00F08873031F482EB93E00E94C70C8BE08E
S1130BB07FC180910E08873009F07CC186EE93E0F6
S1130BC0E7CF853379F410920F0810920E08109233
S1130BD0FF071092FD0785E194E00E94C70CCF91B6
S1130BE00C9439038EE294E0D3CF8BE098E00E941A
S1130BF0DC0C80910B088133A9F40E946E0B60E039
S1130C0081E00E94CE0A0E94640B81E494E00E9479
S1130C10C70C0E94060484E08093FE0781E0809361
S1130C20FA0748C18233A1F40E946E0B6AE582E0A0
S1130C300E94CE0A0E94640B8BE594E00E94C70CCC
S1130C400E94060484E08093FE071092FA0732C1E2
S1130C508CE191E00E94C70C8AED92E00E94C70CDF
S1130C608FE093E00E94C70C8DE193E0EEC08BE02F
S1130C7098E00E94DC0C80910B08813351F481E0F0
S1130C808093FD0785E794E00E94C70C82E894E016
S1130C900BC0823369F482E08093FD0780E994E01D
S1130CA00E94C70C8DE994E00E94C70C86E000C145
S1130CB0863311F5C6E0C093FD078BEA94E00E94E9
S1130CC0C70C80ED94E00E94C70C87ED94E00E946D
S1130CD0C70C8FED94E00E94C70C87EE94E00E944D
S1130CE0C70C8FEE94E00E94C70C87EF94E00E943B
S1130CF0C70CC093FE07DEC08CE191E00E94C70CD4
S1130D00CF910C9422048BE098E00E94DC0C80913B
S1130D10FD078130F9F480910B08813339F462E0E6
S1130D2082E00E94F10980E095E029C0823339F421
S1130D3062E082E00E941B0A8EE195E020C08CE113
S1130D4091E00E94C70C85E794E00E94C70C82E8FA
S1130D5094E07BC0823009F580910B08813339F42B
S1130D6067E082E00E94F1098DE395E008C08233D8
S1130D7049F467E082E00E941B0A8BE595E00E943B
S1130D80C70C7AC08CE191E00E94C70C80E994E022
S1130D900E94C70C8DE994E058C0863009F08AC0DF
S1130DA080910B08813371F40E94490C67E083E061
S1130DB00E941B0A0E94060484E08093FE0710929E
S1130DC0FB0778C0823321F40E94490C84E111C0EE
S1130DD0833321F40E94490C88E20BC0843321F44C
S1130DE00E94490C8CE305C0853341F40E94490CF0
S1130DF080E50E94530C0E943F0C3EC0863339F4B8
S1130E000E94490C67E083E00E94F10935C08AE73B
S1130E1095E00E94C70C8BEA94E00E94C70C80ED19
S1130E2094E00E94C70C87ED94E00E94C70C8FEDFC
S1130E3094E00E94C70C87EE94E00E94C70C8FEEEA
S1130E4094E00E94C70C87EF94E0CF910C94C70CF8
S1130E5085E098E00E94DC0C8DE895E00E94C70CC8
S1130E608AE026C080E098E00E94DC0C0E943E04E8
S1130E70823011F40E946F040E94060406C085E0CB
S1130E8098E00E94DC0C0E94B80484E011C08BE05E
S1130E9098E00E94DC0C80910B08813311F481E00E
S1130EA003C0823319F482E0809360008091FF07CD
S1130EB08093FE07CF910895CF93DF931F92CDB710
S1130EC0DEB71982AE014F5F5F4F62E082E00E949D
S1130ED0E8018981813019F484EB95E004C0811123
S1130EE004C08EEB95E00E94800960E081E00E94DE
S1130EF03609AE014F5F5F4F67E082E00E94E80170
S1130F008981813019F489EC95E004C0811104C011
S1130F1083ED95E00E9480092FEF83ED90E321504B
S1130F2080409040E1F700C000000E949509809144
S1130F30FB07823099F038F4882369F08130C1F4DA
S1130F408DEE95E013C0843079F058F0853081F44B
S1130F5081E396E00BC08EED95E008C08EEF95E03E
S1130F6005C08FE096E002C080E296E00E9480090E
S1130F702FEF83ED90E3215080409040E1F700C0D3
S1130F8000000E9495098091FA07811103C082E450
S1130F9096E004C0813021F48EE496E00E9480093A
S1130FA02FEF83ED90E3215080409040E1F700C0A3
S1130FB000000E9495090F90DF91CF9108958091D0
S1130FC06000813011F0823021F493E0909360004E
S1130FD0089583E008958091FE078093FF078DE0D4
S1130FE08093FE070895811524E0920738F4E1996F
S1130FF0FECF9FBB8EBB6DBBE29AE19A089561154B
S1131000710561F0811524E0920740F4E199FECF67
S11310109FBB8EBBE09A8DB3FB018083089541E0B2
S113102064E081E00E94AE0041E065E081E00E945E
S1131030AE0041E066E081E00E94AE0041E067E07E
S113104081E00E94AE0040E063E082E00E94AE00D6
S113105040E064E082E00E94AE0040E065E082E0AF
S11310600E94AE0040E066E082E00E94AE0041E0F3
S113107064E081E00E941B0141E065E081E00E94A0
S11310801B0141E066E081E00E941B0141E067E052
S113109081E00E941B0163E082E00E94790264E027
S11310A082E00E94790265E082E00E94790266E0B3
S11310B082E00C9479026F927F928F929F92AF920A
S11310C0BF92CF92DF92EF92FF920F931F93CF9331
S11310D0DF93CDB7DEB761970FB6F894DEBF0FBECE
S11310E0CDBF009709F460C07C0180E1E1E6F0E047
S11310F0DE01119601900D928A95E1F78FEFF701C9
S113110080832EE5A22E26E0B22EC12CD12CF5012F
S113111071905F0140E0672D81E00E941B019AE518
S1131120892E96E0992E00E010E0F40161904F01C1
S1131130AE014F5E5F4F662D82E00E94880189896F
S113114081111DC0F801EE0FFF1FEE0FFF1F81E09C
S113115090E08C0F9D1FE80FF91FEC0DFD1D8081A1
S1131160F70180838989811108C0AE014F5E5F4F0A
S1131170662D82E00E948801F5CF11E006C00F5F62
S11311801F4F0430110589F610E041E0672D81E01E
S11311900E941B01113041F0FFEFCF1ADF0A84E0F7
S11311A0C816D10409F0B3CF61960FB6F894DEBF28
S11311B00FBECDBFDF91CF911F910F91FF90EF90A4
S11311C0DF90CF90BF90AF909F908F907F906F9063
S11311D0089541E063E081E00E941B018FE99FE0F4
S11311E00197F1F700C0000040E063E081E00C9457
S11311F01B01CF93C82F40E061E081E00E941B01F6
S113120040E062E081E00E941B018FE39FE10197CF
S1131210F1F700C000004C2F42954F7064E080E06D
S11312200E9448028FE39FE10197F1F700C000009C
S11312300E94E9088FE39FE10197F1F700C00000E5
S11312404C2F4F7064E080E00E9448028FE39FE1DE
S11312500197F1F700C000000E94E9088FE39FE1C5
S11312600197F1F700C00000CF910895823050F447
S1131270603140F4813011F480EC01C080E8860FC5
S11312800C94F9080895CF93C82F41E061E081E000
S11312900E941B0140E062E081E00E941B018FE399
S11312A09FE10197F1F700C000004C2F42954F7069
S11312B064E080E00E9448028FE39FE10197F1F728
S11312C000C000000E94E9088FE39FE10197F1F755
S11312D000C000004C2F4F7064E080E00E94480280
S11312E08FE39FE10197F1F700C000000E94E90835
S11312F08FE39FE10197F1F700C00000CF910895BB
S11313001F93CF93DF93009761F0EC0110E0FE018F
S1131310E10FF11D8081882321F00E9443091F5FA2
S1131320F6CFDF91CF911F91089581E00C94F908D5
S113133041E061E081E00E94AE0041E062E081E0D2
S11313400E94AE0041E063E081E00E94AE0041E013
S113135064E080E00E94AE0041E065E080E00E942D
S1131360AE0041E066E080E00E94AE0041E067E04C
S113137080E00E94AE002FE785EB91E02150804091
S11313809040E1F700C0000082E00E94F9088FE974
S11313909FE00197F1F700C0000088E20E94F9087D
S11313A08FE99FE00197F1F700C000008FE00E94F1
S11313B0F9088FE99FE00197F1F700C000000E944F
S11313C095098FE39FE10197F1F700C0000080E8E1
S11313D00E94F9088FE39FE10197F1F700C0000034
S11313E008950F931F93CF93DF931F92CDB7DEB76A
S11313F08430D8F46830C8F4062F182F87E0898326
S1131400AE014F5F5F4F812F0E94D50289818230E8
S113141060F4811105C041E0602F812F0E94AE006D
S113142041E0602F812F0E941B010F90DF91CF912B
S11314301F910F9108950F931F93CF93DF931F92E2
S1131440CDB7DEB78430D8F46830C8F4062F182F2F
S113145087E08983AE014F5F5F4F812F0E94D502E1
S11314608981823060F4811105C041E0602F812FB1
S11314700E94AE0040E0602F812F0E941B010F905C
S1131480DF91CF911F910F910895CF93DF9300D0F7
S1131490CDB7DEB71A820E9498090E94C40A0E943E
S11314A056000E940F080E94310C0E943F0C40E03D
S11314B060E083E00E94AE0041E061E083E00E94CE
S11314C0AE0041E062E082E00E94AE000E9435037B
S11314D080E195E00E94EF0C0E94B70CBE016E5FA4
S11314E07F4F80E590E00E94FF078A81813089F078
S11314F082E696E00E9480092FEF87EA91E6215068
S113150080409040E1F700C000000E9495090E94CD
S113151049030E94710D0E9439038FEF89831FEFE5
S11315208EE696E00E94800960E081E00E94360920
S113153086E796E00E9480092FEF83ED90E3215027
S113154080409040E1F700C000000E9495098DE7BB
S113155096E00E94800960E081E00E94360989815A
S11315608F3F29F4CE0101960E945B08F8CF8133A6
S113157019F40E94A310D4CF823391F619830E94E8
S11315807E000E945C07CCCF0E944F0B62E370E0A8
S113159080E090E00E949B0B0C94640B6B3560F52B
S11315A0662339F1813019F0823081F00895862F55
S11315B090E0A0E0B0E0825F9E4FAF4FBF4FBC0110
S11315C0CD01660F771F881F991F0CC0A62FB0E0AE
S11315D02EEF3FEF4FEF5FEF0E94E810645E7D4F08
S11315E08F4F9F4F28E430E040E050E00E94B1105C
S11315F0622F81E00C94780B08951F920F920FB61E
S11316000F9211242F933F934F935F936F937F9384
S11316108F939F93AF93BF93EF93FF93E0911C0835
S1131620F0911D08309709F00995FF91EF91BF9152
S1131630AF919F918F917F916F915F914F913F9166
S11316402F910F900FBE0F901F9018951F920F921D
S11316500FB60F9211242F933F934F935F936F9381
S11316607F938F939F93AF93BF93EF93FF93E091F7
S11316701A08F0911B08309709F00995FF91EF9132
S1131680BF91AF919F918F917F916F915F914F9196
S11316903F912F910F900FBE0F901F9018958D9A28
S11316A08C9A8FB58E7F8FBD8FB582608FBD8EB5BE
S11316B088608EBD8EB580618EBD8FB58F7B8FBDEA
S11316C08FB580688FBD08958EB581608EBD8EB54F
S11316D082608EBD8EB58B7F8EBD08958EB58E7F54
S11316E08EBD8EB58D7F8EBD8EB58B7F8EBD0895DC
S11316F0CF93C82F6536E8F4662381F0A6B5B7B555
S11317001196262F30E00E94D91024E630E040E004
S113171050E00E94B1102150310902C026E731E0A7
S1131720C13029F0C23029F439BD28BD02C03BBD07
S11317302ABDCF910895613024E2720724EF820715
S1131740910598F49B01AC0186E0220F331F441FDE
S1131750551F8A95D1F760E074E284EF90E00E940F
S1131760B1102150310937BD26BD08951F920F9243
S11317700FB60F9211242F933F934F935F936F9360
S11317807F938F939F93AF93BF93EF93FF93E091D6
S11317901608F0911708309709F00995FF91EF9119
S11317A0BF91AF919F918F917F916F915F914F9175
S11317B03F912F910F900FBE0F901F9018951F927D
S11317C00F920FB60F9211242F933F934F935F9371
S11317D06F937F938F939F93AF93BF93EF93FF93F5
S11317E0E0911408F0911508309709F00995FF91DC
S11317F0EF91BF91AF919F918F917F916F915F9185
S11318004F913F912F910F900FBE0F901F901895FD
S11318101F920F920FB60F9211242F933F934F9361
S11318205F936F937F938F939F93AF93BF93EF9344
S1131830FF93E0911808F0911908309709F0099581
S1131840FF91EF91BF91AF919F918F917F916F9194
S11318505F914F913F912F910F900FBE0F901F906A
S1131860189585B5806485BD85B5886085BD8F9ADA
S113187085B58F7E85BD85B5806285BD089585B5A6
S11318808E7F85BD85B58D7F85BD85B5846085BD1D
S1131890089585B58E7F85BD85B58D7F85BD85B55C
S11318A08B7F85BD0895853678F49FEF899FB001BD
S11318B01124072E000C880B990B24E630E040E03D
S11318C050E00E94B11023BD08951F920F920FB6ED
S11318D00F9211242F933F934F935F936F937F93B2
S11318E08F939F93AF93BF93EF93FF93E09110086F
S11318F0F0911108309709F00995FF91EF91BF918C
S1131900AF919F918F917F916F915F914F913F9193
S11319102F910F900FBE0F901F9018951F920F924A
S11319200FB60F9211242F933F934F935F936F93AE
S11319307F938F939F93AF93BF93EF93FF93E09124
S11319401208F0911308309709F00995FF91EF916F
S1131950BF91AF919F918F917F916F915F914F91C3
S11319603F912F910F900FBE0F901F901895529892
S113197086E880BD87E689B910BC579A5698559871
S1131980539A549A08958CB95D9BFECF08951F9382
S1131990CF93DF93009761F0EC0110E0FE01E10FBB
S11319A0F11D8081882321F00E94C30C1F5FF6CFB4
S11319B0DF91CF911F9108959C01892B79F090E0DC
S11319C05F9BFECF8CB1F901E90FF11D80838A3052
S11319D019F43197108208959F5FF2CF089500970C
S11319E021F0909321088093200808951F920F926C
S11319F00FB60F9211242F933F934F935F936F93DE
S1131A007F938F939F93AF93BF93EF93FF93E09153
S1131A102008F0912108309709F00995FF91EF9182
S1131A20BF91AF919F918F917F916F915F914F91F2
S1131A303F912F910F900FBE0F901F9018951F92FA
S1131A400F920FB60F9211242F933F934F935F93EE
S1131A506F937F938F939F93AF93BF93EF93FF9372
S1131A60E0911E08F0911F08309709F00995FF9145
S1131A70EF91BF91AF919F918F917F916F915F9102
S1131A804F913F912F910F900FBE0F901F9018957B
S1131A901F920F920FB60F9211242F933F934F93DF
S1131AA05F936F937F938F939F93AF93BF93EF93C2
S1131AB0FF93E0912208F0912308309709F00995EB
S1131AC0FF91EF91BF91AF919F918F917F916F9112
S1131AD05F914F913F912F910F900FBE0F901F90E8
S1131AE018950E9498090E940F088BE896E00E94BE
S1131AF0800960E081E00E94360986E996E00E9450
S1131B0080092FEF87EA91E6215080409040E1F769
S1131B1000C000000C949509DF92EF92FF920F939E
S1131B201F93CF93DF9300D000D000D0CDB7DEB7A2
S1131B308FEF8E8381EA96E00E9480098E818F3F29
S1131B4029F4CE0106960E945B08F8CF0E9443094F
S1131B502FEF87EA91E6215080409040E1F700C0E2
S1131B6000000E9495098FEA96E00E94800960E0D7
S1131B7081E00E943609FE0131967F018F0183E0E6
S1131B80D82EC8010E945B08F80180818F3FC9F3F9
S1131B900E944309DA940F5F1F4FD110F2CFFFEF79
S1131BA023ED80E3F15020408040E1F700C00000C5
S1131BB00E9495091D821C82BE016B5F7F4F8AE0E3
S1131BC090E00E94FF0714E001E08D81081708F0FF
S1131BD05DC0BE016C5F7F4F82E3810F90E00E9485
S1131BE0FF0784E0810F2C819E81291719F00F5F74
S1131BF0182FEBCF03E3010F1A5CBE016C5F7F4F1C
S1131C00802F90E00E94FF07F70191917F018C8162
S1131C109817B9F081EC96E00E948009109225088B
S1131C20FFEF23ED80E3F15020408040E1F700C056
S1131C3000000E949509809124088F5F80932408F6
S1131C404CC00F5F0113D9CF81E0809325088CEC41
S1131C5096E00E9480099FEFE3EDF0E39150E040AD
S1131C60F040E1F700C000000E949509809124082B
S1131C70833099F5109224080E9474002FEF8BE7AB
S1131C8092E9215080409040E1F723C08AED96E02C
S1131C900E948009109225088FEF93EDE0E38150B4
S1131CA09040E040E1F700C000000E949509809157
S1131CB024088F5F80932408833079F410922408D9
S1131CC00E947400EFEFFBE722E9E150F04020406E
S1131CD0E1F700C000000E94790080912508269653
S1131CE00FB6F894DEBF0FBECDBFDF91CF911F9129
S1131CF00F91FF90EF90DF900895CF93DF9300D082
S1131D001F92CDB7DEB741E062E082E00E94AE00F0
S1131D1041E067E082E00E94AE0041E063E083E0DE
S1131D200E94AE0041E067E083E00E94AE008FEFC6
S1131D308B8383EE96E00E9480092FEF87EA91E679
S1131D40215080409040E1F700C000000E949509B6
S1131D508FEE96E00E9480092FEF87EA91E62150EA
S1131D6080409040E1F700C000000E94950986EF92
S1131D7096E00E9480092FEF87EA91E62150804087
S1131D809040E1F700C000000E9495098DEF96E0B5
S1131D900E9480092FEF87EA91E62150804090400D
S1131DA0E1F700C000000E94950984E097E00E94DA
S1131DB080092FEF87EA91E6215080409040E1F7B7
S1131DC000C000000E9495098BE097E00E94800902
S1131DD02FEF87EA91E6215080409040E1F700C060
S1131DE000000E94950982E197E00E9480092FEF8C
S1131DF087EA91E6215080409040E1F700C000005E
S1131E000E9495098B818F3F29F4CE0103960E948D
S1131E105B08F8CF0E9443092FEF83ED90E3215034
S1131E2080409040E1F700C000000E94950980E2E4
S1131E3097E00E9480092FEF87EA91E621508040C5
S1131E409040E1F700C000000E94950985E297E008
S1131E500E9480092FEF87EA91E62150804090404C
S1131E60E1F700C000000E9495098FEF8A838A8100
S1131E708F3F29F4CE0102960E945B08F8CF0E949E
S1131E8043092FEF83ED90E3215080409040E1F728
S1131E9000C000000E9495098B81813331F48A814E
S1131EA0813369F541E062E008C0823309F059C02A
S1131EB08A81813321F541E067E082E00E941B01C1
S1131EC08BE297E00E9480092FEF87EA91E6215088
S1131ED080409040E1F700C000000E9495090FC0C7
S1131EE0833309F48DC008F082C0813309F078C0CF
S1131EF00E94490C84E10E94530C0E943F0C8B8188
S1131F00813339F48A81823309F082C040E062E08F
S1131F1008C0823341F48A81823309F079C040E0F9
S1131F2067E082E00CC0863309F072C08A81823394
S1131F3009F06EC00E94490C40E067E083E00E9413
S1131F401B018BE297E00E9480092FEF87EA91E65C
S1131F50215080409040E1F700C000000E949509A4
S1131F6057C0863309F054C08A81813341F685E332
S1131F7097E00E9480092FEF87EA91E62150804084
S1131F809040E1F700C000000E94950983E497E0C7
S1131F900E94800960E081E00E94360982E597E0B2
S1131FA00E9480092FEF87EA91E6215080409040FB
S1131FB0E1F700C000000E94950981E697E00E94C5
S1131FC0800960E081E00E9436098FEF898389816E
S1131FD08F3F09F085CFCE0101960E945B08F7CFB1
S1131FE0823309F08CCF0E94490C88E284CF843379
S1131FF059F0853309F083CF0E94490C84E67BCFE6
S11320000E94490C8CE377CF0E94490C80E573CF82
S11320100F900F900F90DF91CF91089588E697E08D
S11320200E9480092FEF87EA91E62150804090407A
S1132030E1F700C000000E94950910922508089558
S1132040CF93DF931F92CDB7DEB78FEF898382E7FB
S113205097E00E9480092FEF87EA91E621508040A3
S11320609040E1F700C000000E94950982E897E0E3
S11320700E9480092FEF87EA91E62150804090402A
S1132080E1F700C000000E94950981E997E00E94F1
S113209080092FEF87EA91E6215080409040E1F7D4
S11320A000C000000E9495098BE997E00E94800916
S11320B02FEF87EA91E6215080409040E1F700C07D
S11320C000000E94950989818F3F29F4CE01019671
S11320D00E945B08F8CF0E9443092FEF83ED90E341
S11320E0215080409040E1F700C000000E94950913
S11320F08981813331F0823309F50E940E1080E02A
S11321001EC00E9403048730C9F486EA97E00E9447
S1132110C70C85ED97E00E94C70C0E94EB070E9454
S1132120DF078330E1F3813019F40E947D0E06C08D
S1132130823021F48AEE97E00E94800981E00F90BA
S1132140DF91CF910895CF930E948C0D813039F4A3
S11321500E942010C82F0E947E00C111F9CFCF9198
S11321600895A1E21A2EAA1BBB1BFD010DC0AA1FD4
S1132170BB1FEE1FFF1FA217B307E407F50720F0EC
S1132180A21BB30BE40BF50B661F771F881F991F67
S11321901A9469F760957095809590959B01AC01B0
S11321A0BD01CF010895EE0FFF1F0590F491E02DBE
S11321B00994A29FB001B39FC001A39F700D811D1C
S11321C01124911DB29F700D811D1124911D08953C
S11321D00E94D910A59F900DB49F900DA49F800DCF
S10D21E0911D11240895F894FFCF17
S11321EA033132334134353642373839432A3023BE
S11321FA4448656C6C6F212057656C636F6D65206C
S113220A746F20536D61727420486F6D650A0050B3
S113221A6C6561736520656E746572207768657490
S113222A68657220796F75206172652061646D69D1
S113223A6E206F72206120757365720A00313A410B
S113224A646D696E20202020323A20557365720A23
S113225A00536F7272792C20496E76616C6964201E
S113226A50617373776F72640A00536F7272792CB8
S113227A20496E76616C696420757365726E616D4E
S113228A650A00536F7272792C20496E76616C6903
S113229A642070617373776F72640A00536F727289
S11322AA792C2057726F6E6720496E7075740A0014
S11322BA57656C636F6D650A0043686F6F736520B9
S11322CA746865207365727669636520796F752011
S11322DA7769736820746F20646F0A00313A204466
S11322EA6F6F720A00323A204C4544730A00333A3B
S11322FA2041646420557365720A00343A204465A7
S113230A6C65746520557365720A00353A204C6F02
S113231A67204F75740A00506C6561736520736594
S113232A6C65637420746865204C454420796F7524
S113233A207769736820746F20636F6E74726F6C90
S113234A0A00313A204C454420310A00323A204CE2
S113235A454420320A00333A204C454420330A00CB
S113236A343A204C454420340A00353A204C45443A
S113237A20350A00363A2044696D6D696E67204C2F
S113238A45440A00536F7272792C20557365722082
S113239A416C7265616479204578697374730A00C3
S11323AA55736572205375636365737366756C6CD4
S11323BA792061646465640A0055736572205375F3
S11323CA636365737366756C6C792044656C6574B4
S11323DA65640A00536F7272792E205573657220F0
S11323EA4E6F7420466F756E640A0048656C6C6F94
S11323FA2041646D696E0A00506C656173652065DD
S113240A6E74657220796F757220757365726E6168
S113241A6D653A200A0048656C6C6F2055736572C5
S113242A0A00506C6561736520656E746572207963
S113243A6F75722070617373776F72640A00506CDF
S113244A6561736520656E74657220796F75722093
S113245A757365726E616D650A00506C65617365AA
S113246A2073656C6563742074686520747970657B
S113247A206F66206F7065726174696F6E20796F60
S113248A75207769736820746F20646F3A0A003183
S113249A3A204F70656E20446F6F720A00323A20F8
S11324AA436C6F736520446F6F720A00536F7272C4
S11324BA792E204F6E6C792041646D696E206973A0
S11324CA20616C6C6F77656420746F20636F6E741F
S11324DA726F6C20646F6F720A00506C6561736569
S11324EA20456E74657220746865206E6577207560
S11324FA7365722773204944286D61782E39290A35
S113250A00536F7272792E204F6E6C792041646D7C
S113251A696E20697320616C6C6F77656420746FCF
S113252A20637265617465206E65772075736572C0
S113253A0A00506C6561736520656E746572207457
S113254A686520757365722773204944207468612D
S113255A7420796F75207769736820746F206465B5
S113256A6C6574650A00536F7272792E204F6E6C13
S113257A792041646D696E20697320616C6C6F7790
S113258A656420746F2064656C65746520612075C8
S113259A7365720A004C6F67676564204F7574200F
S11325AA5375636365737366756C6C790A00536F4C
S11325BA7272792C57726F6E6720496E7075740A3D
S11325CA00446F6F72204F70656E656420537563A3
S11325DA6365737366756C6C790A00446F6F722055
S11325EA436C6F73656420537563636573736675AF
S11325FA6C6C790A00313A204C45442031204F6EE4
S113260A0A00323A204C45442031204F66660A00BB
S113261A313A204C45442032204F6E0A00323A2087
S113262A4C45442032204F66660A00506C6561733B
S113263A652043686F6F73652074686520627269E8
S113264A6768746E657373206F66204C45440A008C
S113265A313A2030250A00323A203230250A003332
S113266A3A203430250A00343A203630250A003517
S113267A3A203830250A00363A20313030250A000B
S113268A4C45442031205475726E6564204F6E2087
S113269A5375636365737366756C6C790A004C458C
S11326AA442031205475726E6564204F6666205347
S11326BA75636365737366756C6C790A004C45447B
S11326CA2032205475726E6564204F6E20537563F0
S11326DA6365737366756C6C790A004C45442032E1
S11326EA205475726E6564204F6666205375636361
S11326FA65737366756C6C790A00536F7272792C00
S113270A2057726F6E6720496E70757400506C653D
S113271A61736520656E74657220746865206E65E0
S113272A77207573657227732070617373776F727C
S113273A643A0A004C454420313A204F6E004C4515
S113274A4420313A204F6666004C454420323A20F0
S113275A4F6E004C454420323A204F666600446965
S113276A6D6D696E67204C45443A20300044696DAA
S113277A6D696E67204C45443A203230250044691D
S113278A6D6D696E67204C45443A20343025004407
S113279A696D6D696E67204C45443A2036302500D0
S11327AA44696D6D696E67204C45443A203830257A
S11327BA0044696D6D696E67204C45443A31303086
S11327CA2500446F6F7220436C6F73656400446F15
S11327DA6F72204F70656E65640003040506040574
S11327EA0607466972737420456E747279005741FC
S11327FA4E5420544F004C4F47494E3F00312E59F6
S113280A657320202020322E4E6F0057454C434FCB
S113281A4D4520544F00534D41525420484F4D4585
S113282A00454E54455220555345522049440045CB
S113283A4E5445522050415353574F52445B335DD3
S113284A0057524F4E472050415353004C4F47496B
S113285A4E20535543434553530057524F4E472036
S113286A49440063686F6F7365204C454420003106
S113287A2E4C45443100322E4C45443200332E4C02
S113288A45443300342E4C45443400352E4C4544DB
S113289A3500362E44494D4D494E47204C45440097
S11328AA312E4F4E00322E4F4646005441534B2090
S11328BA444F4E450043484F4F53452042524947DF
S11328CA485400312E32302520202020322E343034
S11328DA2500332E36302520202020322E3830256C
S11328EA00352E31303025005468616E6B20596FE3
S11328FA750063686F6F736520746865207461730B
S113290A6B00312E636F6E74726F6C206C616D7024
S113291A00322E4C6F67206F75740063686F6F7393
S113292A65206E6F7700557365722077616E7473D4
S113293A20746F20636F6E74726F6C2061204C4533
S113294A442E20446F20796F7520616C6C6F772058
S113295A69743F0A00313A205965732020202020E7
S113296A202020323A204E6F0A0041444D494E201D
S10B297A524546555345440043
S9030000FC
