S015000046696E616C5F50726F6A6563742E73726563EF
S11300000C9437000C9454000C9454000C94540039
S11300100C94900E0C94B90E0C9454000C94DF0DB7
S11300200C94080E0C94310E0C940E0D0C94370D98
S11300300C9454000C94240F0C944D0F0C94760FD4
S11300400C948D000C9454000C9454000C945400A3
S11300500C945400B405E905FC055C0628078107E7
S1130060E608DE067D089008B808E608CB081124E7
S11300701FBECFE5D8E0DEBFCDBF17E0A0E6B0E0FD
S1130080EEE0F6E202C005900D92A438B107D9F76C
S113009027E0A4E8B7E001C01D92AA3AB207E1F74D
S11300A00E94130C0C9405130C94000087B1806417
S11300B087B987B1806887B987B18F7D87B986B1E1
S11300C0886086B986B18F7D86B986B18E7F86B900
S11300D086B1826086B986B1846086B986B180684B
S11300E086B90895883048F497B1907E97B997B14E
S11300F0892B87B986B1806486B90895009721F069
S113010090938507809384070895009729F024B17C
S113011035B1FC013183208308951F920F920FB6ED
S11301200F9211242F933F934F935F936F937F9379
S11301308F939F93AF93BF93EF93FF938091840723
S113014090918507892B41F086B1806186B9E09151
S11301508407F0918507099586B1806186B9FF917E
S1130160EF91BF91AF919F918F917F916F915F912B
S11301704F913F912F910F900FBE0F901F901895A4
S113018041E063E080E00E94D200089541E063E032
S113019080E00E944D01089540E063E080E00E9409
S11301A04D010895843008F077C0683008F074C0B9
S11301B0813011F130F08230D1F1833009F452C032
S11301C00895413059F42AB381E090E002C0880FC9
S11301D0991F6A95E2F7822B8ABB089541115CC08E
S11301E02AB381E090E002C0880F991F6A95E2F774
S11301F0809582238ABB0895413059F427B381E066
S113020090E002C0880F991F6A95E2F7822B87BBA2
S11302100895411141C027B381E090E002C0880FE6
S1130220991F6A95E2F78095822387BB0895413030
S113023059F424B381E090E002C0880F991F6A95B5
S1130240E2F7822B84BB0895411126C024B381E0D8
S113025090E002C0880F991F6A95E2F78095822387
S113026084BB0895413059F421B381E090E002C089
S1130270880F991F6A95E2F7822B81BB089541117B
S11302800BC021B381E090E002C0880F991F6A95EA
S1130290E2F78095822381BB0895843008F077C00B
S11302A0683008F074C0813011F130F08230D1F13F
S11302B0833009F452C00895413059F42BB381E0DE
S11302C090E002C0880F991F6A95E2F7822B8BBBDE
S11302D0089541115CC02BB381E090E002C0880F07
S11302E0991F6A95E2F7809582238BBB089541306C
S11302F059F428B381E090E002C0880F991F6A95F1
S1130300E2F7822B88BB0895411141C028B381E0F4
S113031090E002C0880F991F6A95E2F780958223C6
S113032088BB0895413059F425B381E090E002C0C0
S1130330880F991F6A95E2F7822B85BB08954111B6
S113034026C025B381E090E002C0880F991F6A950A
S1130350E2F78095822385BB0895413059F422B396
S113036081E090E002C0880F991F6A95E2F7822B22
S113037082BB089541110BC022B381E090E002C01A
S1130380880F991F6A95E2F78095822382BB0895AE
S11303904115510509F476C0843008F073C0683003
S11303A008F070C0813009F130F08230C1F183303F
S11303B009F44FC0089589B390E0062E02C09595C4
S11303C087950A94E2F780FF04C081E0FA018083F4
S11303D0089589B390E002C0959587956A95E2F7F0
S11303E080FD50C0FA011082089586B390E0062E75
S11303F002C0959587950A94E2F780FF04C081E0D6
S1130400FA018083089586B390E002C0959587959C
S11304106A95E2F780FD36C0FA011082089583B32D
S113042090E0062E02C0959587950A94E2F780FF26
S113043004C081E0FA018083089583B390E002C090
S1130440959587956A95E2F780FD1CC0FA011082A4
S1130450089580B390E0062E02C0959587950A947E
S1130460E2F780FF04C081E0FA018083089580B33D
S113047090E002C0959587956A95E2F780FD02C0E9
S1130480FA01108208954115510509F476C08430AB
S113049008F073C0683008F070C0813009F130F0A2
S11304A08230C1F1833009F44FC008958BB390E0DA
S11304B0062E02C0959587950A94E2F780FF04C042
S11304C081E0FA01808308958BB390E002C0959592
S11304D087956A95E2F780FD50C0FA01108208956D
S11304E088B390E0062E02C0959587950A94E2F7AA
S11304F080FF04C081E0FA018083089588B390E00E
S113050002C0959587956A95E2F780FD36C0FA0199
S11305101082089585B390E0062E02C095958795C4
S11305200A94E2F780FF04C081E0FA018083089511
S113053085B390E002C0959587956A95E2F780FDB2
S11305401CC0FA011082089582B390E0062E02C006
S1130550959587950A94E2F780FF04C081E0FA013B
S11305608083089582B390E002C0959587956A953B
S1130570E2F780FD02C0FA01108208950F931F93E1
S1130580CF93DF93843020F5653010F54031D0F0FF
S11305901FC0202F30E00C2E02C0359527950A94F9
S11305A0E2F720FF07C041E06C2F610F8D2F0E94FE
S11305B04D0106C040E06C2F610F8D2F0E944D014C
S11305C0CF5F04C0042F162FD82FC0E0C43008F327
S11305D0DF91CF911F910F910895843008F05FC08F
S11305E0683008F05CC08130E1F030F0823071F1A5
S11305F0833009F440C008958AB390E0062E02C007
S1130600959587950A94E2F780FD49C02BB381E064
S113061090E002C0880F991F6A95E2F7822B8BBB8A
S1130620089587B390E0062E02C0959587950A94A5
S1130630E2F780FD34C028B381E090E002C0880F67
S1130640991F6A95E2F7822B88BB089584B390E0E2
S1130650062E02C0959587950A94E2F780FD1FC087
S113066025B381E090E002C0880F991F6A95E2F7F4
S1130670822B85BB089581B390E0062E02C0959528
S113068087950A94E2F780FD0AC022B381E090E0E6
S113069002C0880F991F6A95E2F7822B82BB0895E6
S11306A04115510509F476C0843008F073C06830F0
S11306B008F070C0813009F130F08230C1F183302C
S11306C009F44FC008958AB390E0062E02C09595B0
S11306D087950A94E2F780FF04C081E0FA018083E1
S11306E008958AB390E002C0959587956A95E2F7DC
S11306F080FD50C0FA011082089587B390E0062E61
S113070002C0959587950A94E2F780FF04C081E0C2
S1130710FA018083089587B390E002C09595879588
S11307206A95E2F780FD36C0FA011082089584B319
S113073090E0062E02C0959587950A94E2F780FF13
S113074004C081E0FA018083089584B390E002C07C
S1130750959587956A95E2F780FD1CC0FA01108291
S1130760089581B390E0062E02C0959587950A946A
S1130770E2F780FF04C081E0FA018083089581B329
S113078090E002C0959587956A95E2F780FD02C0D6
S1130790FA01108208958FB780688FBF089581E7AA
S11307A090E00E94040F8EE890E00E94040F8BEB0F
S11307B090E00E94040F81E080938C070895CF930A
S11307C062E382E390E00E949209C0E00AC08C2FA9
S11307D090E0FC01ED50FA4F6081C3960E949209AB
S11307E0CF5FC330A0F361E08AE090E00E949209F9
S11307F061E080E590E00E949209CF910895DF9234
S1130800EF92FF920F931F93CF93DF9300D01F9229
S1130810CDB7DEB719821A8200919307013079F5BA
S1130820BE016F5F7F4F82E390E00E94A209909126
S11308309107898198131DC018C0E12EF12CBE01C7
S11308406E5F7F4FC701C3960E94A209F701E2576A
S1130850F84F90818A81981731F08EEC90E00E94D5
S1130860040F02E065C01F5F01C010E0133028F3DD
S11308705FC086EE90E00E94040F02E059C0009130
S11308809207013009F04FC01B82BE016D5F7F4F9C
S11308908AE090E00E94A209D12C11E01AC0812FB5
S11308A090E0880F991F880F991FBE016F5F7F4FDB
S11308B0C2960E94A209909191078981981308C059
S11308C0812F880F880F0F2EF2E3DF2EF02DD80E24
S11308D01F5F8B81181718F3D11021C086EE90E0AA
S11308E00E94040F02E024C08D2D90E00196E12EB9
S11308F0F12CBE016E5F7F4F8E0D9F1D0E94A209D9
S1130900F701E257F84F90818A81981731F08EEF02
S113091090E00E94040F02E00BC01F5F01C010E0D2
S1130920133010F305C086E191E00E94040F02E049
S1130930802F0F900F900F90DF91CF911F910F9107
S1130940FF90EF90DF90089580919307089589E2D6
S113095091E00E94040F81E391E00E94040F83E57B
S113096091E00E94040F8BE591E00E94040F83E65E
S113097091E00E94040F8FE691E00E94040F8EE73D
S113098091E00E94040F089589E891E00E94040F09
S113099083EB91E00E94040F8CEB91E00E94040F22
S11309A085EC91E00E94040F08951F93CF93DF9389
S11309B000D0CDB7DEB71982BE016F5F7F4F8AE0EA
S11309C090E00E94A2091A8211E018C0812F90E0E1
S11309D0880F991F880F991FBE016E5F7F4FC296C3
S11309E00E94A209909191078A81981306C084ED10
S11309F091E00E94040F81E005C01F5F89811817F0
S1130A0028F382E00F900F90DF91CF911F9108950A
S1130A100F931F93CF93DF931F92CDB7DEB7198245
S1130A20BE016F5F7F4F8AE090E00E94A2090981B6
S1130A30000F000F82E3800F6091910790E00E9405
S1130A4092090D5C10E00BC0812F90E0FC01E2578D
S1130A50F84F6081800F911D0E9492091F5F13302F
S1130A6098F369816F5F69838AE090E00E9492093C
S1130A708FEE91E00E94040F0F90DF91CF911F91B0
S1130A800F910895EF92FF920F931F93CF93DF93EB
S1130A9000D01F92CDB7DEB719821A82BE016F5FF4
S1130AA07F4F8AE090E00E94A20911E010C0812FDC
S1130AB0880F880F8E5CBE016E5F7F4F90E00E94AE
S1130AC0A2099A8180919107981729F01F5F898163
S1130AD0181768F310E0112329F11B82012F000F6E
S1130AE0000F0E5C0FC0E02EF12CBE016D5F7F4F36
S1130AF0C70104960E94A2096B81C7010E94920952
S1130B000F5F1F5F212F30E0898190E0880F991FCC
S1130B10880F991F2817390734F387E092E00E9461
S1130B20040F04C081E292E00E94040F0F900F9022
S1130B300F90DF91CF911F910F91FF90EF90089547
S1130B401F93CF93DF931F92CDB7DEB7E0918C074D
S1130B508E2F90E0FC013197ED30F10508F036C39B
S1130B60E65DFF4F0C94F0121982CE0101960E94AB
S1130B70FE0E89810E94FA0E8DE00E94FA0E898190
S1130B80813379F481E08093930787E392E00E94B4
S1130B90040F83E492E00E94040F82E080938C07A8
S1130BA015C3823379F481E08093920780E692E062
S1130BB00E94040F83E492E00E94040F82E0809379
S1130BC08C0704C386E191E00E94040F0E94CF03C6
S1130BD0FDC281E997E00E94FE0E809191070E9478
S1130BE0FA0E8DE00E94FA0E8BE692E00E94040F4A
S1130BF083E080938C07EAC28091870790E0825754
S1130C00984F0E94FE0EE0918707F0E0E257F84FFC
S1130C1080810E94FA0E809187078F5F80938707F7
S1130C20833009F0D3C28DE00E94FA0E0E94FF03C4
S1130C308130B9F480919307813021F487E0809367
S1130C40930707C080919207813019F487E080935D
S1130C5092070E94A70484E080938C071092870770
S1130C6010C01092870780918A078F5F80938A074C
S1130C70833021F086E892E00E94040F82E08093A2
S1130C808C0780918A07833009F0A0C20E94C600B5
S1130C902FEF8BE792E9215080409040E1F700C0AC
S1130CA000000E94CC000E94CF0310929307109280
S1130CB0920710928A078AC21982CE0101960E9475
S1130CC0FE0E89810E94FA0E8DE00E94FA0E89813F
S1130CD0813301F580919307873081F481EA92E0B2
S1130CE00E94040F85ED92E00E94040F82EE92E0D0
S1130CF00E94040F88E080938C0768C28091920759
S1130D00873009F063C280EF92E00E94040F0E94D2
S1130D10A7045CC2823331F40E94C40485E080934A
S1130D208C0754C28333C1F480919307873041F414
S1130D308DE193E00E94040F89E080938C0746C202
S1130D4080919207873009F041C283E493E00E94C6
S1130D50040F0E94A7043AC28433C1F4809193071C
S1130D60873041F483E793E00E94040F8BE0809383
S1130D708C072CC280919207873009F027C286EA3B
S1130D8093E00E94040F0E94A70420C2853379F4E3
S1130D90109293071092920710928D0710928B076E
S1130DA084ED93E00E94040F0E94CF030FC28CEEE7
S1130DB093E00E94040F0E94A70408C21982CE0186
S1130DC001960E94FE0E89810E94FA0E8DE00E9417
S1130DD0FA0E89818133A9F40E94830D60E081E0D9
S1130DE00E94A60C0E94790D8EEF93E00E94040FDE
S1130DF00E94A70484E080938C0781E08093880795
S1130E00E5C18233A1F40E94830D6AE582E00E9469
S1130E10A60C0E94790D87E194E00E94040F0E94C1
S1130E20A70484E080938C0710928807CFC186E1E1
S1130E3091E00E94040F81EA92E00E94040F85ED84
S1130E4092E00E94040F82EE92E00E94040FBEC161
S1130E501982CE0101960E94FE0E89810E94FA0E2B
S1130E608DE00E94FA0E8981813379F481E08093C8
S1130E708B0780E394E00E94040F8CE394E00E94CB
S1130E80040F86E080938C07A1C1823379F482E059
S1130E9080938B0789E494E00E94040F85E594E035
S1130EA00E94040F86E080938C0790C1833311F570
S1130EB016E010938B0782E694E00E94040F86E804
S1130EC094E00E94040F8CE894E00E94040F83E9EC
S1130ED094E00E94040F8AE994E00E94040F81EADE
S1130EE094E00E94040F88EA94E00E94040F109397
S1130EF08C076CC186E191E00E94040F0E94C40437
S1130F0065C11982CE0101960E94FE0E89810E945C
S1130F10FA0E8DE00E94FA0E80918B07813071F5F4
S1130F208981813371F462E082E00E94960B80EB48
S1130F3094E00E94040F0E94A70484E080938C072D
S1130F4045C1823371F462E082E00E94C00B8DECF3
S1130F5094E00E94040F0E94A70484E080938C070D
S1130F6035C186E191E00E94040F80E394E00E9481
S1130F70040F8CE394E00E94040F28C1823071F5C1
S1130F808981813371F467E082E00E94960B8BEED5
S1130F9094E00E94040F0E94A70484E080938C07CD
S1130FA015C1823371F467E082E00E94C00B88E0CF
S1130FB095E00E94040F0E94A70484E080938C07AC
S1130FC005C186E191E00E94040F89E494E00E9447
S1130FD0040F85E594E00E94040FF8C0863009F000
S1130FE0F5C08981813379F40E94740E80E00E94F7
S1130FF07E0E0E946A0E0E94A70484E080938C07F0
S113100010928907E3C0823381F40E94740E84E154
S11310100E947E0E0E946A0E0E94A70484E08093C0
S11310208C0781E080938907D1C0833381F40E94C7
S1131030740E88E20E947E0E0E946A0E0E94A7042B
S113104084E080938C0782E080938907BFC0843357
S113105081F40E94740E8CE30E947E0E0E946A0E3C
S11310600E94A70484E080938C0783E0809389071F
S1131070ADC0853379F40E94740E80E50E947E0E23
S11310800E946A0E0E94A70484E080938C078093D8
S113109089079CC0863381F40E94740E84E60E9402
S11310A07E0E0E946A0E0E94A70484E080938C073F
S11310B085E0809389078AC086E191E00E94040F4D
S11310C082E694E00E94040F86E894E00E94040FF4
S11310D08CE894E00E94040F83E994E00E94040FDA
S11310E08AE994E00E94040F81EA94E00E94040FCC
S11310F088EA94E00E94040F69C081E997E00E94A5
S1131100FE0E809191070E94FA0E8DE00E94FA0E65
S113111086E295E00E94040F8AE080938C0756C013
S11311208091860790E08257984F0E94FE0EE091CE
S11311308607F0E0E257F84F80810E94FA0E809112
S113114086078F5F80938607833009F03FC08DE068
S11311500E94FA0E0E94D504823011F40E94080500
S11311600E94A7041092860784E080938C072EC007
S113117081E997E00E94FE0E809191070E94FA0E89
S11311808DE00E94FA0E0E9442050E94A70484E0AA
S113119080938C071BC01982CE0101960E94FE0E1B
S11311A089810E94FA0E8DE00E94FA0E89818133B2
S11311B021F481E08093600005C0823319F482E059
S11311C08093600080918D0780938C070F90DF914E
S11311D0CF911F910895CF93DF931F92CDB7DEB7C0
S11311E01982AE014F5F5F4F62E082E00E944302CA
S11311F08981813029F48CE495E00E94230B06C098
S1131200811104C086E595E00E94230B60E081E033
S11312100E94D50AAE014F5F5F4F67E082E00E94F3
S113122043028981813029F481E695E00E94230BF1
S113123006C0811104C08BE695E00E94230B2FEFBA
S113124083ED90E3215080409040E1F700C000001E
S11312500E94390B809189078230B1F028F48823E9
S113126049F0813061F023C08430C1F090F08530C2
S1131270D1F01DC086E795E00E94230B18C086E8D4
S113128095E00E94230B13C087E995E00E94230B8D
S11312900EC088EA95E00E94230B09C089EB95E013
S11312A00E94230B04C08AEC95E00E94230B60E0AB
S11312B081E00E94D50A80918807811105C08BEDD9
S11312C095E00E94230B06C0813021F487EE95E05F
S11312D00E94230B2FEF83ED90E321508040904038
S11312E0E1F700C000000E94390B0F90DF91CF910D
S11312F0089580916000813019F0823029F008C08F
S113130093E090936000089593E0909360000895B3
S113131083E0089580918C0780938D078DE08093FE
S11313208C070895811524E0920758F4E199FECFC3
S11313309FBB8EBB6DBB8CB384608CBB8CB3826053
S11313408CBB08956115710571F0811524E0920735
S113135050F4E199FECF9FBB8EBB8CB381608CBBF4
S11313608DB3FB018083089541E064E081E00E9435
S1131370D20041E065E081E00E94D20041E066E0F5
S113138081E00E94D20041E067E081E00E94D20047
S113139040E063E082E00E94D20040E064E082E04A
S11313A00E94D20040E065E082E00E94D20040E06A
S11313B066E082E00E94D20041E064E081E00E94A5
S11313C04D0141E065E081E00E944D0141E066E0AD
S11313D081E00E944D0141E067E081E00E944D01FF
S11313E063E082E00E94ED0264E082E00E94ED028C
S11313F065E082E00E94ED0266E082E00E94ED0278
S113140008959F92AF92BF92CF92DF92EF92FF9294
S11314100F931F93CF93DF93CDB7DEB761970FB6CA
S1131420F894DEBF0FBECDBF009709F45EC05C0127
S113143080E1E1E6F0E0DE01119601900D928A95DB
S1131440E1F78FEFF5018083912C00E04BC0C02EB3
S1131450D12CF601E650FA4F40E0608181E00E9411
S11314604D0110E031C0E12EF12CF701EA50FA4FA2
S1131470AE014F5E5F4F608182E00E94C80199898E
S1131480911121C0F701EE0FFF1FEE0FFF1F81E046
S113149090E08C0F9D1FE80FF91FEC0DFD1D80815E
S11314A0F50180830AC0AE014F5E5F4FF701EA5039
S11314B0FA4F608182E00E94C8018989882399F3E8
S11314C09924939403C01F5F143068F2F601E65028
S11314D0FA4F41E0608181E00E944D01F1E09F16E6
S11314E021F00F5F043008F4B2CF61960FB6F89480
S11314F0DEBF0FBECDBFDF91CF911F910F91FF9043
S1131500EF90DF90CF90BF90AF909F90089541E00F
S113151063E081E00E944D018FE99FE00197F1F7BC
S113152000C0000040E063E081E00E944D010895A6
S1131530CF93C82F40E061E081E00E944D0140E07C
S113154062E081E00E944D018FE39FE10197F1F792
S113155000C000004C2F42954F7064E080E00E9470
S1131560BE028FE39FE10197F1F700C000000E94E3
S1131570870A8FE39FE10197F1F700C000004C2F29
S11315804F7064E080E00E94BE028FE39FE1019708
S1131590F1F700C000000E94870A8FE39FE10197E2
S11315A0F1F700C00000CF910895823070F46031EB
S11315B060F4882331F0813011F080E003C080ECC6
S11315C001C080E8860F0E94980A0895CF93C82F1F
S11315D041E061E081E00E944D0140E062E081E091
S11315E00E944D018FE39FE10197F1F700C00000D5
S11315F04C2F42954F7064E080E00E94BE028FE35E
S11316009FE10197F1F700C000000E94870A8FE371
S11316109FE10197F1F700C000004C2F4F7064E088
S113162080E00E94BE028FE39FE10197F1F700C0C2
S113163000000E94870A8FE39FE10197F1F700C041
S11316400000CF9108950F931F93CF93009729F42F
S11316500CC00E94E60ACF5F02C08C01C0E0F80112
S1131660EC0FF11D80818111F4CFCF911F910F9167
S1131670089581E00E94980A089541E061E081E0C4
S11316800E94D20041E062E081E00E94D20041E089
S113169063E081E00E94D20041E064E080E00E94C7
S11316A0D20041E065E080E00E94D20041E066E0C3
S11316B080E00E94D20041E067E080E00E94D20016
S11316C02FE785EB91E0215080409040E1F700C086
S11316D0000082E00E94980A8FE99FE00197F1F7E9
S11316E000C0000088E20E94980A8FE99FE00197F9
S11316F0F1F700C000008FE00E94980A8FE99FE094
S11317000197F1F700C000000E94390B8FE39FE1BD
S11317100197F1F700C0000080E80E94980A8FE367
S11317209FE10197F1F700C0000008950F931F9304
S1131730CF93DF931F92CDB7DEB78430D8F46830EF
S1131740C8F4062F182F87E08983AE014F5F5F4FDF
S1131750812F0E9450038981823060F4811105C079
S113176041E0602F812F0E94D20041E0602F812F41
S11317700E944D010F90DF91CF911F910F91089519
S11317800F931F93CF93DF931F92CDB7DEB78430AF
S1131790D8F46830C8F4062F182F87E08983AE0187
S11317A04F5F5F4F812F0E9450038981823060F424
S11317B0811105C041E0602F812F0E94D20040E0DA
S11317C0602F812F0E944D010F90DF91CF911F91C7
S11317D00F91089580E00E9472000895CF93DF93E3
S11317E000D0CDB7DEB71A821982CE0101960E94CD
S11317F0850089819A8196958795969587958531F7
S113180030F440E062E080E00E944D0107C08D3179
S113181028F041E062E080E00E944D010F900F90BB
S1131820DF91CF910895CF93DF9300D0CDB7DEB78A
S113183019820E943D0B0E949B0C0E94C0000E94D2
S1131840CB0340E060E080E00E94D20041E062E02F
S113185080E00E94D2000E94F30C8AEE9BE00E947A
S1131860070D0E94FD0C8EEE9BE00E947E000E94FC
S113187056000E94B4090E945A0E40E060E083E0E2
S11318800E94D20041E061E083E00E94D20080EA3D
S113189095E00E941D0F0E94E20EBE016F5F7F4F14
S11318A080E590E00E94A2098981813089F08EEF61
S11318B095E00E94230B2FEF87EA91E621508040A8
S11318C09040E1F700C000000E94390B0E94DF0342
S11318D00E949F0F0E94CF038FEF8A838BE096E0D4
S11318E00E94230B60E081E00E94D50A8AE196E021
S11318F00E94230B2FEF83ED90E321508040904012
S1131900E1F700C000000E94390B04C0CE0102962A
S11319100E94010A8A818F3FC9F3813319F40E941E
S1131920C51206C0823321F40E94390B0E94EB08D1
S11319308FEF8A83D3CF0E94600D62E370E080E072
S113194090E00E94B10D0E94790D08950F931F93AA
S11319506B3508F045C0611104C081E00E948D0D13
S11319603FC0813019F08230D1F03AC0862F90E028
S1131970A0E0B0E0825F9E4FAF4FBF4FBC01CD01EE
S1131980660F771F881F991F28E430E040E050E07D
S11319900E94CE12622F81E00E948D0D21C0862FFD
S11319A090E0A0E0B0E000E010E09801081B190B03
S11319B02A0B3B0BD901C801880F991FAA1FBB1F13
S11319C0BC01CD01645E7D4F8F4F9F4F28E430E012
S11319D040E050E00E94CE12622F81E00E948D0D03
S11319E01F910F91089583B78F7B83BF83B7877F40
S11319F083BF89B7816089BF089583B78E7F83BF12
S1131A0083B78D7F83BF83B7846083BF08950097B6
S1131A1021F090939F0780939E0708951F920F9241
S1131A200FB60F9211242F933F934F935F936F93AD
S1131A307F938F939F93AF93BF93EF93FF93E09123
S1131A40A007F091A107309709F00995FF91EF9154
S1131A50BF91AF919F918F917F916F915F914F91C2
S1131A603F912F910F900FBE0F901F9018951F92CA
S1131A700F920FB60F9211242F933F934F935F93BE
S1131A806F937F938F939F93AF93BF93EF93FF9342
S1131A90E0919E07F0919F07309709F00995FF9117
S1131AA0EF91BF91AF919F918F917F916F915F91D2
S1131AB04F913F912F910F900FBE0F901F9018954B
S1131AC081B3806281BB81B3806181BB8FB58E7F1E
S1131AD08FBD8FB582608FBD8EB588608EBD8EB58B
S1131AE080618EBD8FB58F7B8FBD8FB580688FBDB4
S1131AF008958EB581608EBD8EB582608EBD8EB523
S1131B008B7F8EBD08958EB58E7F8EBD8EB58D7FF5
S1131B108EBD8EB58B7F8EBD0895CF93C82F65364D
S1131B20F0F4662381F0A6B5B7B51196262F30E000
S1131B300E94F61224E630E040E050E00E94CE120B
S1131B402150310902C026E731E0C13019F0C2301A
S1131B5021F005C03BBD2ABD02C039BD28BDCF91CF
S1131B600895613024E2720724EF8207910530F56D
S1131B70DC01CB01880F991FAA1FBB1F880F991F77
S1131B80AA1FBB1F880F991FAA1FBB1F880F991F6D
S1131B90AA1FBB1F9C01AD01220F331F441F551FF9
S1131BA0220F331F441F551F60E074E284EF90E05E
S1131BB00E94CE122150310937BD26BD08951F92CF
S1131BC00F920FB60F9211242F933F934F935F936D
S1131BD06F937F938F939F93AF93BF93EF93FF93F1
S1131BE0E0919A07F0919B07309709F00995FF91CE
S1131BF0EF91BF91AF919F918F917F916F915F9181
S1131C004F913F912F910F900FBE0F901F901895F9
S1131C101F920F920FB60F9211242F933F934F935D
S1131C205F936F937F938F939F93AF93BF93EF9340
S1131C30FF93E0919807F0919907309709F009957F
S1131C40FF91EF91BF91AF919F918F917F916F9190
S1131C505F914F913F912F910F900FBE0F901F9066
S1131C6018951F920F920FB60F9211242F933F9342
S1131C704F935F936F937F938F939F93AF93BF9390
S1131C80EF93FF93E0919C07F0919D07309709F043
S1131C900995FF91EF91BF91AF919F918F917F91A2
S1131CA06F915F914F913F912F910F900FBE0F90C5
S1131CB01F90189585B5806485BD85B5886085BD00
S1131CC081B3806881BB85B58F7E85BD85B5806213
S1131CD085BD089585B5816085BD85B58D7F85BD3C
S1131CE085B58B7F85BD089585B58E7F85BD85B50A
S1131CF08D7F85BD85B58B7F85BD0895853678F448
S1131D009FEF899FB0011124072E000C880B990BBB
S1131D1024E630E040E050E00E94CE1223BD089556
S1131D201F920F920FB60F9211242F933F934F934C
S1131D305F936F937F938F939F93AF93BF93EF932F
S1131D40FF93E0919407F0919507309709F0099576
S1131D50FF91EF91BF91AF919F918F917F916F917F
S1131D605F914F913F912F910F900FBE0F901F9055
S1131D7018951F920F920FB60F9211242F933F9331
S1131D804F935F936F937F938F939F93AF93BF937F
S1131D90EF93FF93E0919607F0919707309709F03E
S1131DA00995FF91EF91BF91AF919F918F917F9191
S1131DB06F915F914F913F912F910F900FBE0F90B4
S1131DC01F9018958AB18B7F8AB986E880BD87E613
S1131DD089B910BC8AB180688AB98AB18F7B8AB903
S1131DE08AB18F7D8AB98AB188608AB98AB18061E3
S1131DF08AB908958CB95D9BFECF0895009719F0B8
S1131E002CB1FC01208308950F931F93CF93009767
S1131E1029F40FC00E94FA0ECF5F02C08C01C0E00B
S1131E20F801EC0FF11D80818111F4CF8DE00E9447
S1131E30FA0ECF911F910F910895009721F090937E
S1131E40A5078093A40708951F920F920FB60F92CF
S1131E5011242F933F934F935F936F937F938F93AB
S1131E609F93AF93BF93EF93FF93E091A407F091F7
S1131E70A507309709F00995FF91EF91BF91AF91B4
S1131E809F918F917F916F915F914F913F912F918E
S1131E900F900FBE0F901F9018951F920F920FB6C0
S1131EA00F9211242F933F934F935F936F937F93DC
S1131EB08F939F93AF93BF93EF93FF93E091A20708
S1131EC0F091A307309709F00995FF91EF91BF9125
S1131ED0AF919F918F917F916F915F914F913F91BE
S1131EE02F910F900FBE0F901F9018951F920F9275
S1131EF00FB60F9211242F933F934F935F936F93D9
S1131F007F938F939F93AF93BF93EF93FF93E0914E
S1131F10A607F091A707309709F00995FF91EF9173
S1131F20BF91AF919F918F917F916F915F914F91ED
S1131F303F912F910F900FBE0F901F9018950E9404
S1131F403D0B0E94B40941E062E082E00E94D200AD
S1131F5041E067E082E00E94D20041E067E083E074
S1131F600E94D20088E296E00E94230B60E081E0A8
S1131F700E94D50A83E396E00E94230B2FEF83EDA2
S1131F8090E3215080409040E1F700C000000E949F
S1131F90390B0895FF920F931F93CF93DF9300D0D3
S1131FA000D000D0CDB7DEB78FEF89838EE396E003
S1131FB00E94230B04C0CE0101960E94010A89816C
S1131FC08F3FC9F30E94E60A2FEF83ED90E321507F
S1131FD080409040E1F700C000000E94390B8DE47E
S1131FE096E00E94230B60E081E00E94D50AF12C68
S1131FF002E010E00C0F1D1F0F0D111DC8010E94FF
S1132000010AF80180818F3F99F30E94E60AF39454
S1132010F3E0FF12EDCF2FEF83ED90E321508040EA
S11320209040E1F700C000000E94390B1D821E821F
S1132030BE016B5F7F4F8AE090E00E94A20910E02E
S113204001E010C0102F110F110F1E5CBE016A5F5A
S11320507F4F812F90E00E94A2099E818981981769
S113206031F00F5F8D81081768F380E001C081E0D3
S1132070813009F059C01F5F00E02CC0BE016A5FC7
S11320807F4F812F90E00E94A209E2E0F0E0EC0F84
S1132090FD1FE00FF11D90818E819817C9F08DE529
S11320A096E00E94230B1092A907EFEFF3ED20E3D3
S11320B0E150F0402040E1F700C000000E94390BDD
S11320C08091A8078F5F8093A8078091A90755C0C6
S11320D01F5F0F5F033090F281E08093A90788E6C9
S11320E096E00E94230B8FEF93EDE0E38150904044
S11320F0E040E1F700C000000E94390B8091A8077E
S1132100833079F41092A8070E94C600FFEF2BE7F2
S113211082E9F15020408040E1F700C000000E94B5
S1132120CC008091A90729C086E796E00E94230B82
S11321301092A9079FEFE3EDF0E39150E040F040E7
S1132140E1F700C000000E94390B8091A8078F5F5F
S11321508093A807833079F41092A8070E94C600E0
S11321602FEF8BE792E9215080409040E1F700C0C7
S113217000000E94CC008091A90726960FB6F8941F
S1132180DEBF0FBECDBFDF91CF911F910F91FF90A6
S11321900895CF93DF9300D01F92CDB7DEB78FEFB2
S11321A089838FE796E00E94230B2FEF83ED90E362
S11321B0215080409040E1F700C000000E94390B9C
S11321C08BE896E00E94230B60E081E00E94D50A30
S11321D08BE996E00E94230B2FEF83ED90E32150CF
S11321E080409040E1F700C000000E94390B8981D3
S11321F08F3F29F4CE0101960E94010AF8CF0E9474
S1132200E60A2FEF83ED90E3215080409040E1F700
S113221000C000000E94390B89EA96E00E94230B5B
S113222060E081E00E94D50A8FEF8A838A818F3F24
S113223029F4CE0102960E94010AF8CF0E94E60A10
S11322402FEF83ED90E3215080409040E1F700C0F0
S113225000000E94390B89818133C1F49A81913342
S1132260A9F441E062E082E00E944D0189EB96E02E
S11322700E94230B2FEF83ED90E321508040904088
S1132280E1F700C000000E94390B8DC08233C1F415
S11322909A819133A9F441E067E082E00E944D0104
S11322A089EB96E00E94230B2FEF83ED90E32150FE
S11322B080409040E1F700C000000E94390B73C0D9
S11322C0833309F070C08A81813309F06CC083ECD8
S11322D096E00E94230B2FEF83ED90E32150804082
S11322E09040E1F700C000000E94390B81ED96E0B8
S11322F00E94230B60E081E00E94D50A80EE96E004
S11323000E94230B2FEF83ED90E3215080409040F7
S1132310E1F700C000000E94390B8FEE96E00E94A6
S1132320230B60E081E00E94D50A8FEF8B838B81C1
S11323308F3F29F4CE0103960E94010AF8CF83331C
S1132340D9F028F4813341F0823371F02CC0843306
S1132350D9F0853309F127C00E94740E84E10E94EC
S11323607E0E0E946A0E1FC00E94740E88E20E94B4
S11323707E0E0E946A0E17C00E94740E8CE30E94A7
S11323807E0E0E946A0E0FC00E94740E80E50E94A9
S11323907E0E0E946A0E07C00E94740E84E60E949C
S11323A07E0E0E946A0E89818133C1F49A81923330
S11323B0A9F440E062E082E00E944D0189EB96E0DE
S11323C00E94230B2FEF83ED90E321508040904037
S11323D0E1F700C000000E94390B35C08233C1F41C
S11323E09A819233A9F440E067E082E00E944D01B3
S11323F089EB96E00E94230B2FEF83ED90E32150AD
S113240080409040E1F700C000000E94390B1BC0DF
S11324108333C9F48A818233B1F40E94740E80E05C
S11324200E947E0E0E946A0E89EB96E00E94230BA6
S11324302FEF83ED90E3215080409040E1F700C0FE
S113244000000E94390B0F900F900F90DF91CF91F5
S1132450089586EF96E00E94230B2FEF87EA91E61A
S1132460215080409040E1F700C000000E94390BE9
S11324701092A9070895CF93DF931F92CDB7DEB7CB
S11324808FEF898380E097E00E94230B2FEF83ED89
S113249090E3215080409040E1F700C000000E948A
S11324A0390B80E197E00E94230B60E081E00E94F9
S11324B0D50A8FE197E00E94230B2FEF83ED90E381
S11324C0215080409040E1F700C000000E94390B89
S11324D089E297E00E94230B60E081E00E94D50A24
S11324E089818F3F29F4CE0101960E94010AF8CF19
S11324F00E94E60A2FEF83ED90E321508040904044
S1132500E1F700C000000E94390B8981813319F082
S1132510823381F133C00E94A404873039F584E307
S113252097E00E94040F82E697E00E94040F0E9445
S11325308A090E9479098330E1F3813021F40E94F1
S1132540C91081E01EC08230D9F486E797E00E946A
S1132550230B2FEF89E698E1215080409040E1F76A
S113256000C000000E94390B81E00BC00E94C9101A
S113257081E007C00E94291280E003C081E001C00D
S113258081E00F90DF91CF9108950E94CA0F8130AE
S113259021F40E943B128111FCCF0895A1E21A2E6E
S11325A0AA1BBB1BFD010DC0AA1FBB1FEE1FFF1FF3
S11325B0A217B307E407F50720F0A21BB30BE40B43
S11325C0F50B661F771F881F991F1A9469F760958A
S11325D07095809590959B01AC01BD01CF01089544
S11325E0EE0FFF1F0590F491E02D0994A29FB00116
S11325F0B39FC001A39F700D811D1124911DB29F33
S1112600700D811D1124911D0895F894FFCFD3
S113260E033132334134353642373839432A302395
S113261E4448656C6C6F212057656C636F6D652043
S113262E746F20536D61727420486F6D6500506C29
S113263E6561736520656E7465722077686574686C
S113264E657220796F75206172652061646D696EA3
S113265E206F722061207573657200313A41646D8A
S113266E696E20202020323A205573657200536F14
S113267E7272792C20496E76616C69642050617394
S113268E73776F726400536F7272792C20496E7671
S113269E616C696420757365726E616D6500536F4C
S11326AE7272792C20496E76616C69642070617344
S11326BE73776F726400536F7272792C2057726F36
S11326CE6E6720496E7075740057656C636F6D6527
S11326DE0043686F6F736520746865207365727646
S11326EE69636520796F75207769736820746F202C
S11326FE646F00313A20446F6F7200323A204C45B9
S113270E447300333A204164642055736572003477
S113271E3A2044656C657465205573657200353ACC
S113272E204C6F67204F757400506C656173652083
S113273E73656C65637420746865204C4544207918
S113274E6F75207769736820746F20636F6E74726F
S113275E6F6C00313A204C4544203100323A204C03
S113276E4544203200333A2044696D6D696E67200A
S113277E4C454400536F7272792C20557365722048
S113278E416C726561647920457869737473005580
S113279E736572205375636365737366756C6C79B8
S11327AE20616464656400557365722053756363B8
S11327BE65737366756C6C792044656C65746564B9
S11327CE00536F7272792E2055736572204E6F749A
S11327DE20466F756E640048656C6C6F2041646DA5
S11327EE696E00506C6561736520656E7465722048
S11327FE796F757220757365726E616D653A20001E
S113280E48656C6C6F205573657200506C6561730E
S113281E6520656E74657220796F757220706173B0
S113282E73776F726400506C6561736520656E74A6
S113283E657220796F757220757365726E616D6540
S113284E00506C656173652073656C6563742074E8
S113285E68652074797065206F66206F706572618B
S113286E74696F6E20796F75207769736820746F41
S113287E20646F3A00313A204F70656E20446F6FBA
S113288E7200323A20436C6F736520446F6F72008E
S113289E536F7272792E204F6E6C792041646D697C
S11328AE6E20697320616C6C6F77656420746F2081
S11328BE636F6E74726F6C20646F6F7200506C6510
S11328CE61736520456E74657220746865206E654B
S11328DE7720757365722773204944286D61782EAD
S11328EE392900536F7272792E204F6E6C79204104
S11328FE646D696E20697320616C6C6F77656420FA
S113290E746F20637265617465206E6577207573CC
S113291E657200506C6561736520656E7465722016
S113292E7468652075736572277320494420746832
S113293E617420796F75207769736820746F2064D1
S113294E656C65746500536F7272792E204F6E6CD0
S113295E792041646D696E20697320616C6C6F77A8
S113296E656420746F2064656C65746520612075E0
S113297E736572004C6F67676564204F75742053DE
S113298E75636365737366756C6C7900536F7272DD
S113299E792C57726F6E6720496E70757400446F90
S11329AE6F72204F70656E65642053756363657333
S11329BE7366756C6C7900446F6F7220436C6F7321
S11329CE6564205375636365737366756C6C790007
S11329DE313A204C45442031204F6E00323A204C7F
S11329EE45442031204F666600313A204C45442040
S11329FE32204F6E00323A204C45442032204F662E
S1132A0E6600506C656173652043686F6F73652053
S1132A1E746865206272696768746E657373206F7B
S1132A2E66204C454400313A20302500323A20329B
S1132A3E302500333A2034302500343A2036302500
S1132A4E00353A2038302500363A20313030250012
S1132A5E4C45442031205475726E6564204F6E20AF
S1132A6E5375636365737366756C6C79004C45447A
S1132A7E2031205475726E6564204F66662053753E
S1132A8E636365737366756C6C79004C45442032D0
S1132A9E205475726E6564204F6E205375636365A2
S1132AAE737366756C6C79004C45442032205475F2
S1132ABE726E6564204F6666205375636365737327
S1132ACE66756C6C7900506C6561736520656E7407
S1132ADE657220746865206E65772075736572273C
S1132AEE732070617373776F72643A004C4544209F
S1132AFE313A204F6E004C454420313A204F6666E1
S1132B0E004C454420323A204F6E004C454420324E
S1132B1E3A204F66660044696D6D696E67204C45B8
S1132B2E443A2030250044696D6D696E67204C452A
S1132B3E443A203230250044696D6D696E67204C2D
S1132B4E45443A203430250044696D6D696E672022
S1132B5E4C45443A203630250044696D6D696E67E4
S1132B6E204C45443A203830250044696D6D696E19
S1132B7E67204C45443A3130302500446F6F722043
S1132B8E436C6F73656400446F6F72204F70656E93
S1132B9E65640031323303040506040506074669ED
S1132BAE72737420456E747279210057414E54200D
S1132BBE544F204C4F47494E3F00313A59657320CC
S1132BCE202020323A4E6F0057454C434F4D45203E
S1132BDE544F00534D41525420484F4D4500454EDD
S1132BEE54455220555345522049443A00454E54BB
S1132BFE45522050415353574F52443A0057524F67
S1132C0E4E472050415353004C4F47494E20535585
S1132C1E43434553530057524F4E47204944006394
S1132C2E686F6F7365204C45442000312E4C45442B
S1132C3E31202020322E4C45443200332E44494D4F
S1132C4E4D494E47204C454400312E4F4E202020F6
S1132C5E202020322E4F4646005441534B20444FE1
S1132C6E4E450043484F4F5345204252494748541E
S1132C7E00312E32302520202020322E34302500F3
S1132C8E332E36302520202020322E3830250035A4
S1132C9E2E31303025005468616E6B20596F7500EB
S1132CAE63686F6F736520746865207461736B005D
S1132CBE312E636F6E74726F6C206C616D700032A6
S1132CCE2E4C6F67206F75740063686F6F73652089
S1132CDE6E6F7700557365722077616E747320740E
S1132CEE6F20636F6E74726F6C2061204C45442E9E
S1132CFE20446F20796F7520616C6C6F7720697436
S1132D0E3F00313A205965732020202020202020B6
S1132D1E323A204E6F0041444D494E20524546559D
S1072D2E53454400C1
S9030000FC
