S015000046696E616C5F50726F6A6563742E73726563EF
S11300000C9437000C9454000C9454000C94540039
S11300100C94CB0D0C94F40D0C9454000C941A0D08
S11300200C94430D0C946C0D0C94490C0C94720CB0
S11300300C9454000C94880E0C94B10E0C94DA0EAB
S11300400C9454000C9454000C9454000C945400DC
S11300500C945400B305E205EE053406F406470794
S11300606A08B0062F083B084B086A085508112493
S11300701FBECFE5D8E0DEBFCDBF17E0A0E6B0E0FD
S1130080EEE9F5E202C005900D92AC3FB107D9F755
S113009028E0ACEFB7E001C01D92AA32B207E1F745
S11300A00E94720B0C94CD120C94000087B18064F2
S11300B087B987B18F7787B987B18F7D87B986B1C3
S11300C08F7D86B986B1816086B986B1826086B932
S11300D086B1846086B986B1806886B90895611551
S11300E07105A9F0883098F497B1907E97B997B1CB
S11300F0892B87B986B1806486B9349BFECF86B1DB
S1130100806186B984B195B1FB01918380830895A0
S113011041E063E080E00E944501089540E063E02F
S113012080E00E94450108956CEF77E081E00E9431
S11301306F002091FC073091FD07A8E8B3E10E940D
S1130140BE12DC01CB01072E7AE0B695A7959795F0
S113015087957A95D1F7702DBC01603D87E07807CB
S113016058F441E062E080E00E94CA0040E062E0AE
S113017080E00E9445010895613A7F4050F041E0DB
S113018062E080E00E94CA0041E062E080E00E94F8
S113019045010895843008F077C0683008F074C0D1
S11301A0813011F130F08230D1F1833009F452C042
S11301B00895413059F42AB381E090E002C0880FD9
S11301C0991F6A95E2F7822B8ABB089541115CC09E
S11301D02AB381E090E002C0880F991F6A95E2F784
S11301E0809582238ABB0895413059F427B381E076
S11301F090E002C0880F991F6A95E2F7822B87BBB3
S11302000895411141C027B381E090E002C0880FF6
S1130210991F6A95E2F78095822387BB0895413040
S113022059F424B381E090E002C0880F991F6A95C5
S1130230E2F7822B84BB0895411126C024B381E0E8
S113024090E002C0880F991F6A95E2F78095822397
S113025084BB0895413059F421B381E090E002C099
S1130260880F991F6A95E2F7822B81BB089541118B
S11302700BC021B381E090E002C0880F991F6A95FA
S1130280E2F78095822381BB0895843008F077C01B
S1130290683008F074C0813011F130F08230D1F14F
S11302A0833009F452C00895413059F42BB381E0EE
S11302B090E002C0880F991F6A95E2F7822B8BBBEE
S11302C0089541115CC02BB381E090E002C0880F17
S11302D0991F6A95E2F7809582238BBB089541307C
S11302E059F428B381E090E002C0880F991F6A9501
S11302F0E2F7822B88BB0895411141C028B381E005
S113030090E002C0880F991F6A95E2F780958223D6
S113031088BB0895413059F425B381E090E002C0D0
S1130320880F991F6A95E2F7822B85BB08954111C6
S113033026C025B381E090E002C0880F991F6A951A
S1130340E2F78095822385BB0895413059F422B3A6
S113035081E090E002C0880F991F6A95E2F7822B32
S113036082BB089541110BC022B381E090E002C02A
S1130370880F991F6A95E2F78095822382BB0895BE
S11303804115510509F476C0843008F073C0683013
S113039008F070C0813009F130F08230C1F183304F
S11303A009F44FC0089589B390E0062E02C09595D4
S11303B087950A94E2F780FF04C081E0FA01808304
S11303C0089589B390E002C0959587956A95E2F700
S11303D080FD50C0FA011082089586B390E0062E85
S11303E002C0959587950A94E2F780FF04C081E0E6
S11303F0FA018083089586B390E002C095958795AD
S11304006A95E2F780FD36C0FA011082089583B33D
S113041090E0062E02C0959587950A94E2F780FF36
S113042004C081E0FA018083089583B390E002C0A0
S1130430959587956A95E2F780FD1CC0FA011082B4
S1130440089580B390E0062E02C0959587950A948E
S1130450E2F780FF04C081E0FA018083089580B34D
S113046090E002C0959587956A95E2F780FD02C0F9
S1130470FA01108208954115510509F476C08430BB
S113048008F073C0683008F070C0813009F130F0B2
S11304908230C1F1833009F44FC008958BB390E0EA
S11304A0062E02C0959587950A94E2F780FF04C052
S11304B081E0FA01808308958BB390E002C09595A2
S11304C087956A95E2F780FD50C0FA01108208957D
S11304D088B390E0062E02C0959587950A94E2F7BA
S11304E080FF04C081E0FA018083089588B390E01E
S11304F002C0959587956A95E2F780FD36C0FA01AA
S11305001082089585B390E0062E02C095958795D4
S11305100A94E2F780FF04C081E0FA018083089521
S113052085B390E002C0959587956A95E2F780FDC2
S11305301CC0FA011082089582B390E0062E02C016
S1130540959587950A94E2F780FF04C081E0FA014B
S11305508083089582B390E002C0959587956A954B
S1130560E2F780FD02C0FA01108208950F931F93F1
S1130570CF93DF93843020F5653010F54031D0F00F
S11305801FC0202F30E00C2E02C0359527950A9409
S1130590E2F720FF07C041E06C2F610F8D2F0E940E
S11305A0450106C040E06C2F610F8D2F0E9445016C
S11305B0CF5F04C0042F162FD82FC0E0C43008F337
S11305C0DF91CF911F910F910895843008F05FC09F
S11305D0683008F05CC08130E1F030F0823071F1B5
S11305E0833009F440C008958AB390E0062E02C017
S11305F0959587950A94E2F780FD49C02BB381E075
S113060090E002C0880F991F6A95E2F7822B8BBB9A
S1130610089587B390E0062E02C0959587950A94B5
S1130620E2F780FD34C028B381E090E002C0880F77
S1130630991F6A95E2F7822B88BB089584B390E0F2
S1130640062E02C0959587950A94E2F780FD1FC097
S113065025B381E090E002C0880F991F6A95E2F704
S1130660822B85BB089581B390E0062E02C0959538
S113067087950A94E2F780FD0AC022B381E090E0F6
S113068002C0880F991F6A95E2F7822B82BB0895F6
S11306904115510509F476C0843008F073C0683000
S11306A008F070C0813009F130F08230C1F183303C
S11306B009F44FC008958AB390E0062E02C09595C0
S11306C087950A94E2F780FF04C081E0FA018083F1
S11306D008958AB390E002C0959587956A95E2F7EC
S11306E080FD50C0FA011082089587B390E0062E71
S11306F002C0959587950A94E2F780FF04C081E0D3
S1130700FA018083089587B390E002C09595879598
S11307106A95E2F780FD36C0FA011082089584B329
S113072090E0062E02C0959587950A94E2F780FF23
S113073004C081E0FA018083089584B390E002C08C
S1130740959587956A95E2F780FD1CC0FA011082A1
S1130750089581B390E0062E02C0959587950A947A
S1130760E2F780FF04C081E0FA018083089581B339
S113077090E002C0959587956A95E2F780FD02C0E6
S1130780FA01108208958FB780688FBF089581E7BA
S113079090E00E94410E8FE890E00E94410E8DEBA4
S11307A090E00E94410E81E0809302080895CF9367
S11307B062E382E390E00E941A09C0E00AC08C2F31
S11307C090E0FC01E65AF94F6081C3960E941A0931
S11307D0CF5FC330A0F361E08AE090E00E941A0981
S11307E061E080E590E00E941A09CF910895DF92BC
S11307F0EF92FF920F931F93CF93DF9300D01F923A
S1130800CDB7DEB719821A8200911308013079F549
S1130810BE016F5F7F4F82E390E00E942A099091AE
S11308200908898198131DC018C0E12EF12CBE015E
S11308306E5F7F4FC701C3960E942A09F701EC5FE0
S1130840F74F90818A81981731F081ED90E00E94F2
S1130850410E02E065C01F5F01C010E0133028F3B1
S11308605FC08AEE90E00E94410E02E059C0009100
S11308701208013009F04FC01B82BE016D5F7F4F2B
S11308808AE090E00E942A09D12C11E01AC0812F3D
S113089090E0880F991F880F991FBE016F5F7F4FEB
S11308A0C2960E942A09909109088981981308C068
S11308B0812F880F880F0F2EF2E3DF2EF02DD80E34
S11308C01F5F8B81181718F3D11021C08AEE90E0B6
S11308D00E94410E02E024C08D2D90E00196E12E8D
S11308E0F12CBE016E5F7F4F8E0D9F1D0E942A0961
S11308F0F701EC5FF74F90818A81981731F083E01C
S113090091E00E94410E02E00BC01F5F01C010E0A5
S1130910133010F305C08CE191E00E94410E02E017
S1130920802F0F900F900F90DF91CF911F910F9117
S1130930FF90EF90DF90089580911308089580E36D
S113094091E00E94410E89E391E00E94410E8CE502
S113095091E00E94410E85E691E00E94410E8EE6F0
S113096091E00E94410E8BE791E00E94410E8BE8DA
S113097091E00E94410E089587E991E00E94410EA2
S113098082EC91E00E94410E8CEC91E00E94410EB9
S113099086ED91E00E94410E80EE91E00E94410EAE
S11309A08AEE91E00E94410E84EF91E00E94410E94
S11309B008951F93CF93DF9300D0CDB7DEB719828C
S11309C0BE016F5F7F4F8AE090E00E942A091A827D
S11309D011E018C0812F90E0880F991F880F991F8C
S11309E0BE016E5F7F4FC2960E942A09909109084A
S11309F08A81981306C084E092E00E94410E81E04F
S1130A0005C01F5F8981181728F382E00F900F90AB
S1130A10DF91CF911F9108950F931F93CF93DF938D
S1130A201F92CDB7DEB71982BE016F5F7F4F8AE098
S1130A3090E00E942A090981000F000F82E3800FD1
S1130A406091090890E00E941A090D5C10E00BC047
S1130A50812F90E0FC01EC5FF74F6081800F911DC6
S1130A600E941A091F5F133098F369816F5F6983CD
S1130A708AE090E00E941A0980E292E00E94410E0E
S1130A800F90DF91CF911F910F910895EF92FF92F4
S1130A900F931F93CF93DF9300D01F92CDB7DEB790
S1130AA019821A82BE016F5F7F4F8AE090E00E9434
S1130AB02A0911E010C0812F880F880F8E5CBE01B7
S1130AC06E5F7F4F90E00E942A09909109088A8105
S1130AD0981729F01F5F8981181768F310E0112314
S1130AE029F11B82012F000F000F0E5C0FC0E02EB6
S1130AF0F12CBE016D5F7F4FC70104960E942A0945
S1130B006B81C7010E941A090F5F1F5F212F30E01C
S1130B10898190E0880F991F880F991F281739073A
S1130B2034F389E392E00E94410E04C084E592E02C
S1130B300E94410E0F900F900F90DF91CF911F9163
S1130B400F91FF90EF900895CF93E09102088E2FBC
S1130B5090E0FC013197ED30F10508F0BBC2E65D91
S1130B60FF4F0C94B8128FE098E00E94570E8091CA
S1130B700F08813379F481E0809313088BE692E0C7
S1130B800E94410E88E792E00E94410E82E0809329
S1130B900208A0C2823379F481E08093120886E9C6
S1130BA092E00E94410E88E792E00E94410E82E0AA
S1130BB0809302088FC28CE191E00E94410E0E9452
S1130BC0C70388C289E098E00E94570E82EA92E047
S1130BD00E94410E83E0809302087CC284E098E086
S1130BE00E94570E0E94F7038130A9F480911308E4
S1130BF0813021F487E08093130807C080911208A4
S1130C00813019F487E0809312080E949F0484E0E5
S1130C10809302080EC0809100088F5F80930008C3
S1130C20833021F08EEB92E00E94410E82E08093AB
S1130C30020880910008833009F04CC20E948800A9
S1130C402FEF8BE792E9215080409040E1F700C0FC
S1130C5000000E948E000E94C70310921308109295
S1130C6012081092000836C28FE098E00E94570ED6
S1130C7080910F08813301F580911308873081F446
S1130C808AED92E00E94410E8FE093E00E94410EB3
S1130C908DE193E00E94410E88E0809302081AC21D
S1130CA080911208873009F015C28CE293E00E940B
S1130CB0410E0E949F040EC2823331F40E94BC0490
S1130CC085E08093020806C28333C1F4809113083F
S1130CD0873041F48AE593E00E94410E89E08093D5
S1130CE00208F8C180911208873009F0F3C181E845
S1130CF093E00E94410E0E949F04ECC18433C1F42E
S1130D0080911308873041F482EB93E00E94410EF6
S1130D108BE080930208DEC180911208873009F0CD
S1130D20D9C186EE93E00E94410E0E949F04D2C175
S1130D30853379F410921308109212081092030864
S1130D401092010885E194E00E94410E0E94C703BD
S1130D50C1C18EE294E00E94410E0E949F04BAC178
S1130D608FE098E00E94570E80910F088133A9F418
S1130D700E94BE0C60E081E00E94FC0B0E94B40C57
S1130D8081E494E00E94410E0E949F0484E08093D9
S1130D90020881E08093FE079DC18233A1F40E9482
S1130DA0BE0C6AE582E00E94FC0B0E94B40C8BE549
S1130DB094E00E94410E0E949F0484E08093020804
S1130DC01092FE0787C18CE191E00E94410E8AEDEA
S1130DD092E00E94410E8FE093E00E94410E8DE16B
S1130DE093E00E94410E76C18FE098E00E94570E76
S1130DF080910F08813379F481E08093010885E7BD
S1130E0094E00E94410E82E894E00E94410E86E044
S1130E10809302085FC1823379F482E080930108F1
S1130E2080E994E00E94410E8DE994E00E94410E15
S1130E3086E0809302084EC1863311F5C6E0C09364
S1130E4001088BEA94E00E94410E80ED94E00E9438
S1130E50410E87ED94E00E94410E8FED94E00E94D4
S1130E60410E87EE94E00E94410E8FEE94E00E94C2
S1130E70410E87EF94E00E94410EC09302082AC1FC
S1130E808CE191E00E94410E0E94BC0423C18FE0DA
S1130E9098E00E94570E80910108813079F5809185
S1130EA00F08813371F462E082E00E941E0B80E03F
S1130EB095E00E94410E0E949F0484E08093020802
S1130EC009C1823371F462E082E00E94480B8EE132
S1130ED095E00E94410E0E949F0484E080930208E2
S1130EE0F9C08CE191E00E94410E85E794E00E94F4
S1130EF0410E82E894E00E94410EECC0823079F504
S1130F0080910F08813371F467E082E00E941E0B28
S1130F108DE395E00E94410E0E949F0484E080933B
S1130F200208D8C0823371F467E082E00E94480B63
S1130F308BE595E00E94410E0E949F0484E080931B
S1130F400208C8C08CE191E00E94410E80E994E05F
S1130F500E94410E8DE994E00E94410EBBC0863090
S1130F6009F0B8C080910F08813371F40E94AF0D6D
S1130F7067E083E00E94480B0E949F0484E0809312
S1130F8002081092FF07A6C0823369F40E94AF0DD5
S1130F9084E10E94B90D0E94A50D0E949F0484E083
S1130FA08093020897C0833369F40E94AF0D88E2EE
S1130FB00E94B90D0E94A50D0E949F0484E08093B5
S1130FC0020888C0843369F40E94AF0D8CE30E9448
S1130FD0B90D0E94A50D0E949F0484E0809302082D
S1130FE079C0853369F40E94AF0D80E50E94B90D84
S1130FF00E94A50D0E949F0484E0809302086AC0A9
S1131000863361F40E94AF0D67E083E00E941E0BFB
S11310100E949F0484E0809302085CC08AE795E004
S11310200E94410E8BEA94E00E94410E80ED94E010
S11310300E94410E87ED94E00E94410E8FED94E0F2
S11310400E94410E87EE94E00E94410E8FEE94E0E0
S11310500E94410E87EF94E00E94410E3BC089E05C
S113106098E00E94570E8DE895E00E94410E8AE0B8
S1131070809302082FC084E098E00E94570E0E94DB
S1131080D904823011F40E940C050E949F0484E06C
S1131090809302081FC089E098E00E94570E0E94C6
S11310A0460584E08093020815C08FE098E00E9412
S11310B0570E80910F08813321F481E08093600002
S11310C005C0823319F482E08093600080910308A4
S11310D080930208CF910895CF93DF931F92CDB7E9
S11310E0DEB71982AE014F5F5F4F62E082E00E947B
S11310F03B028981813029F484EB95E00E94AB0A9C
S113110006C0811104C08EEB95E00E94AB0A60E03A
S113111081E00E945D0AAE014F5F5F4F67E082E0AD
S11311200E943B028981813029F489EC95E00E9478
S1131130AB0A06C0811104C083ED95E00E94AB0A9E
S11311402FEF83ED90E3215080409040E1F700C001
S113115000000E94C10A8091FF078230B1F028F498
S1131160882349F0813061F023C08430C1F090F0CD
S11311708530D1F01DC08EED95E00E94AB0A18C0F9
S11311808DEE95E00E94AB0A13C08EEF95E00E94AD
S1131190AB0A0EC08FE096E00E94AB0A09C080E261
S11311A096E00E94AB0A04C081E396E00E94AB0A79
S11311B02FEF83ED90E3215080409040E1F700C091
S11311C000000E94C10A8091FE07811105C082E4DB
S11311D096E00E94AB0A06C0813021F48EE496E0CA
S11311E00E94AB0A2FEF83ED90E3215080409040A2
S11311F0E1F700C000000E94C10A0F90DF91CF9177
S1131200089580916000813019F0823029F008C07F
S113121093E090936000089593E0909360000895A4
S113122083E0089580910208809303088DE0809301
S113123002080895811524E0920758F4E199FECF3D
S11312409FBB8EBB6DBB8CB384608CBB8CB3826044
S11312508CBB08956115710571F0811524E0920726
S113126050F4E199FECF9FBB8EBB8CB381608CBBE5
S11312708DB3FB018083089541E064E081E00E9426
S1131280CA0041E065E081E00E94CA0041E066E0F6
S113129081E00E94CA0041E067E081E00E94CA0048
S11312A040E063E082E00E94CA0040E064E082E043
S11312B00E94CA0040E065E082E00E94CA0040E06B
S11312C066E082E00E94CA0041E064E081E00E949E
S11312D0450141E065E081E00E94450141E066E0AE
S11312E081E00E94450141E067E081E00E94450100
S11312F063E082E00E94E50264E082E00E94E5028D
S113130065E082E00E94E50266E082E00E94E50278
S113131008959F92AF92BF92CF92DF92EF92FF9285
S11313200F931F93CF93DF93CDB7DEB761970FB6BB
S1131330F894DEBF0FBECDBF009709F45EC05C0118
S113134080E1E1E6F0E0DE01119601900D928A95CC
S1131350E1F78FEFF5018083912C00E04BC0C02EA4
S1131360D12CF601EF59F94F40E0608181E00E94F1
S1131370450110E031C0E12EF12CF701E35AF94F99
S1131380AE014F5E5F4F608182E00E94C001998987
S1131390911121C0F701EE0FFF1FEE0FFF1F81E037
S11313A090E08C0F9D1FE80FF91FEC0DFD1D80814F
S11313B0F50180830AC0AE014F5E5F4FF701E35A27
S11313C0F94F608182E00E94C0018989882399F3E2
S11313D09924939403C01F5F143068F2F601EF5907
S11313E0F94F41E0608181E00E944501F1E09F16E0
S11313F021F00F5F043008F4B2CF61960FB6F89471
S1131400DEBF0FBECDBFDF91CF911F910F91FF9033
S1131410EF90DF90CF90BF90AF909F90089541E000
S113142063E081E00E9445018FE99FE00197F1F7B5
S113143000C0000040E063E081E00E94450108959F
S1131440CF93C82F40E061E081E00E94450140E075
S113145062E081E00E9445018FE39FE10197F1F78B
S113146000C000004C2F42954F7064E080E00E9461
S1131470B6028FE39FE10197F1F700C000000E94DC
S11314800F0A8FE39FE10197F1F700C000004C2F92
S11314904F7064E080E00E94B6028FE39FE1019701
S11314A0F1F700C000000E940F0A8FE39FE101974B
S11314B0F1F700C00000CF910895823070F46031DC
S11314C060F4882331F0813011F080E003C080ECB7
S11314D001C080E8860F0E94200A0895CF93C82F88
S11314E041E061E081E00E94450140E062E081E08A
S11314F00E9445018FE39FE10197F1F700C00000CE
S11315004C2F42954F7064E080E00E94B6028FE356
S11315109FE10197F1F700C000000E940F0A8FE3DA
S11315209FE10197F1F700C000004C2F4F7064E079
S113153080E00E94B6028FE39FE10197F1F700C0BB
S113154000000E940F0A8FE39FE10197F1F700C0AA
S11315500000CF9108950F931F93CF93009729F420
S11315600CC00E946E0ACF5F02C08C01C0E0F8017B
S1131570EC0FF11D80818111F4CFCF911F910F9158
S1131580089581E00E94200A089541E061E081E02D
S11315900E94CA0041E062E081E00E94CA0041E08A
S11315A063E081E00E94CA0041E064E080E00E94C0
S11315B0CA0041E065E080E00E94CA0041E066E0C4
S11315C080E00E94CA0041E067E080E00E94CA0017
S11315D02FE785EB91E0215080409040E1F700C077
S11315E0000082E00E94200A8FE99FE00197F1F752
S11315F000C0000088E20E94200A8FE99FE0019762
S1131600F1F700C000008FE00E94200A8FE99FE0FC
S11316100197F1F700C000000E94C10A8FE39FE127
S11316200197F1F700C0000080E80E94200A8FE3D0
S11316309FE10197F1F700C0000008950F931F93F5
S1131640CF93DF931F92CDB7DEB78430D8F46830E0
S1131650C8F4062F182F87E08983AE014F5F5F4FD0
S1131660812F0E9448038981823060F4811105C072
S113167041E0602F812F0E94CA0041E0602F812F3A
S11316800E9445010F90DF91CF911F910F91089512
S11316900F931F93CF93DF931F92CDB7DEB78430A0
S11316A0D8F46830C8F4062F182F87E08983AE0178
S11316B04F5F5F4F812F0E9448038981823060F41D
S11316C0811105C041E0602F812F0E94CA0040E0D3
S11316D0602F812F0E9445010F90DF91CF911F91C0
S11316E00F910895CF93DF9300D0CDB7DEB7198261
S11316F00E94C50A0E94F10B0E9456000E943C09F8
S11317000E94950D0E94A50D40E060E083E00E94D8
S1131710CA0041E061E083E00E94CA0041E062E067
S113172082E00E94CA000E94C30384EA95E00E94FA
S1131730810E0E941D0EBE016F5F7F4F80E590E019
S11317400E942A098981813089F085E696E00E9409
S1131750AB0A2FEF87EA91E6215080409040E1F7F1
S113176000C000000E94C10A0E94D7030E94030F18
S11317700E94C7038FEF8A8381E796E00E94AB0A39
S113178060E081E00E945D0A89E796E00E94AB0A6E
S11317902FEF83ED90E3215080409040E1F700C0AB
S11317A000000E94C10A80E896E00E94AB0A60E053
S11317B081E00E945D0A8A818F3F29F4CE0102965E
S11317C00E948909F8CF813319F40E948812D4CF7A
S11317D0823391F68FEF8A830E9494000E946C08F2
S11317E0CBCF0E949B0C62E370E080E090E00E940B
S11317F0EC0C0E94B40C08950F931F936B3508F002
S113180045C0611104C081E00E94C80C3FC0813012
S113181019F08230D1F03AC0862F90E0A0E0B0E019
S1131820825F9E4FAF4FBF4FBC01CD01660F771F44
S1131830881F991F28E430E040E050E00E9496128F
S1131840622F81E00E94C80C21C0862F90E0A0E0A6
S1131850B0E000E010E09801081B190B2A0B3B0BC9
S1131860D901C801880F991FAA1FBB1FBC01CD0154
S1131870645E7D4F8F4F9F4F28E430E040E050E09E
S11318800E949612622F81E00E94C80C1F910F9152
S113189008951F920F920FB60F9211242F933F9326
S11318A04F935F936F937F938F939F93AF93BF9364
S11318B0EF93FF93E0912008F0912108309709F00D
S11318C00995FF91EF91BF91AF919F918F917F9176
S11318D06F915F914F913F912F910F900FBE0F9099
S11318E01F9018951F920F920FB60F9211242F93E9
S11318F03F934F935F936F937F938F939F93AF9394
S1131900BF93EF93FF93E0911E08F0911F08309767
S113191009F00995FF91EF91BF91AF919F918F913C
S11319207F916F915F914F913F912F910F900FBED7
S11319300F901F90189581B3806281BB81B3806141
S113194081BB8FB58E7F8FBD8FB582608FBD8EB505
S113195088608EBD8EB580618EBD8FB58F7B8FBD47
S11319608FB580688FBD08958EB581608EBD8EB5AC
S113197082608EBD8EB58B7F8EBD08958EB58E7FB1
S11319808EBD8EB58D7F8EBD8EB58B7F8EBD089539
S1131990CF93C82F6536F0F4662381F0A6B5B7B5AA
S11319A01196262F30E00E94BE1224E630E040E07B
S11319B050E00E9496122150310902C026E731E01E
S11319C0C13019F0C23021F005C03BBD2ABD02C0B0
S11319D039BD28BDCF910895613024E2720724EF08
S11319E08207910530F5DC01CB01880F991FAA1FEE
S11319F0BB1F880F991FAA1FBB1F880F991FAA1FFF
S1131A00BB1F880F991FAA1FBB1F9C01AD01220F8A
S1131A10331F441F551F220F331F441F551F60E0FF
S1131A2074E284EF90E00E9496122150310937BD90
S1131A3026BD08951F920F920FB60F9211242F9373
S1131A403F934F935F936F937F938F939F93AF9342
S1131A50BF93EF93FF93E0911A08F0911B0830971E
S1131A6009F00995FF91EF91BF91AF919F918F91EB
S1131A707F916F915F914F913F912F910F900FBE86
S1131A800F901F9018951F920F920FB60F9211246A
S1131A902F933F934F935F936F937F938F939F9372
S1131AA0AF93BF93EF93FF93E0911808F091190857
S1131AB0309709F00995FF91EF91BF91AF919F91F4
S1131AC08F917F916F915F914F913F912F910F90E3
S1131AD00FBE0F901F9018951F920F920FB60F9282
S1131AE011242F933F934F935F936F937F938F931F
S1131AF09F93AF93BF93EF93FF93E0911C08F091F2
S1131B001D08309709F00995FF91EF91BF91AF91AE
S1131B109F918F917F916F915F914F913F912F9101
S1131B200F900FBE0F901F90189585B5806485BDEA
S1131B3085B5886085BD81B3806881BB85B58F7E9E
S1131B4085BD85B5806285BD089585B58E7F85BDCB
S1131B5085B58D7F85BD85B5846085BD089585B5C2
S1131B608E7F85BD85B58D7F85BD85B58B7F85BD14
S1131B700895853678F49FEF899FB0011124072ECC
S1131B80000C880B990B24E630E040E050E00E9402
S1131B90961223BD08951F920F920FB60F9211242F
S1131BA02F933F934F935F936F937F938F939F9361
S1131BB0AF93BF93EF93FF93E0911408F09115084E
S1131BC0309709F00995FF91EF91BF91AF919F91E3
S1131BD08F917F916F915F914F913F912F910F90D2
S1131BE00FBE0F901F9018951F920F920FB60F9271
S1131BF011242F933F934F935F936F937F938F930E
S1131C009F93AF93BF93EF93FF93E0911608F091E6
S1131C101708309709F00995FF91EF91BF91AF91A3
S1131C209F918F917F916F915F914F913F912F91F0
S1131C300F900FBE0F901F9018958AB18B7F8AB9B1
S1131C4086E880BD87E689B910BC8AB180688AB904
S1131C508AB18F7B8AB98AB18F7D8AB98AB188604B
S1131C608AB98AB180618AB908958CB95D9BFECF27
S1131C700895009729F05F9BFECF2CB1FC012083CF
S1131C8008950F931F93CF93009729F40CC00E94DB
S1131C90350ECF5F02C08C01C0E0F801EC0FF11DDE
S1131CA080818111F4CFCF911F910F910895EF920C
S1131CB0FF921F93CF93DF931F92CDB7DEB70097A8
S1131CC0C9F07C01198210E0CE0101960E94390E00
S1131CD0212F30E0D701A20FB31F99819C939A3032
S1131CE039F421503109F701E20FF31F108202C0C9
S1131CF01F5FEACF0F90DF91CF911F91FF90EF907C
S1131D000895009721F0909325088093240808955E
S1131D101F920F920FB60F9211242F933F934F935C
S1131D205F936F937F938F939F93AF93BF93EF933F
S1131D30FF93E0912408F0912508309709F0099564
S1131D40FF91EF91BF91AF919F918F917F916F918F
S1131D505F914F913F912F910F900FBE0F901F9065
S1131D6018951F920F920FB60F9211242F933F9341
S1131D704F935F936F937F938F939F93AF93BF938F
S1131D80EF93FF93E0912208F0912308309709F034
S1131D900995FF91EF91BF91AF919F918F917F91A1
S1131DA06F915F914F913F912F910F900FBE0F90C4
S1131DB01F9018951F920F920FB60F9211242F9314
S1131DC03F934F935F936F937F938F939F93AF93BF
S1131DD0BF93EF93FF93E0912608F0912708309783
S1131DE009F00995FF91EF91BF91AF919F918F9168
S1131DF07F916F915F914F913F912F910F900FBE03
S1131E000F901F9018950E94C50A0E943C098EE805
S1131E1096E00E94AB0A60E081E00E945D0A89E9D5
S1131E2096E00E94AB0A2FEF87EA91E621508040AA
S1131E309040E1F700C000000E94C10A0895FF929B
S1131E400F931F93CF93DF9300D000D000D0CDB772
S1131E50DEB78FEF898384EA96E00E94AB0A04C060
S1131E60CE0101960E94890989818F3FC9F30E949E
S1131E706E0A2FEF87EA91E6215080409040E1F707
S1131E8000C000000E94C10A82EB96E00E94AB0AE7
S1131E9060E081E00E945D0AF12C02E010E00C0F8A
S1131EA01D1F0F0D111DC8010E948909F8018081B1
S1131EB08F3F99F30E946E0AF394F3E0FF12EDCF83
S1131EC02FEF83ED90E3215080409040E1F700C074
S1131ED000000E94C10A1D821E82BE016B5F7F4FFB
S1131EE08AE090E00E942A0910E001E010C0102F5F
S1131EF0110F110F1E5CBE016A5F7F4F812F90E0AE
S1131F000E942A099E818981981731F00F5F8D8183
S1131F10081768F380E001C081E0813009F059C0FE
S1131F201F5F00E02CC0BE016A5F7F4F812F90E0ED
S1131F300E942A09E2E0F0E0EC0FFD1FE00FF11D22
S1131F4090818E819817C9F084EC96E00E94AB0AC8
S1131F5010922908EFEFF3ED20E3E150F040204028
S1131F60E1F700C000000E94C10A809128088F5F39
S1131F70809328088091290855C01F5F0F5F0330A4
S1131F8090F281E0809329088FEC96E00E94AB0ADE
S1131F908FEF93EDE0E381509040E040E1F700C023
S1131FA000000E94C10A80912808833079F41092BD
S1131FB028080E948800FFEF2BE782E9F1502040B7
S1131FC08040E1F700C000000E948E008091290843
S1131FD029C08DED96E00E94AB0A109229089FEF6C
S1131FE0E3EDF0E39150E040F040E1F700C0000081
S1131FF00E94C10A809128088F5F8093280883304B
S113200079F4109228080E9488002FEF8BE792E958
S1132010215080409040E1F700C000000E948E00F3
S11320208091290826960FB6F894DEBF0FBECDBF67
S1132030DF91CF911F910F91FF900895CF93DF937C
S113204000D01F92CDB7DEB741E062E082E00E948B
S1132050CA0041E067E082E00E94CA0041E063E018
S113206083E00E94CA0041E067E083E00E94CA0066
S11320708FEF898386EE96E00E94AB0A2FEF87EA02
S113208091E6215080409040E1F700C000000E949A
S1132090C10A82EF96E00E94AB0A2FEF87EA91E62D
S11320A0215080409040E1F700C000000E94C10A26
S11320B089EF96E00E94AB0A2FEF87EA91E6215060
S11320C080409040E1F700C000000E94C10A80E017
S11320D097E00E94AB0A2FEF87EA91E621508040F7
S11320E09040E1F700C000000E94C10A87E097E039
S11320F00E94AB0A2FEF87EA91E62150804090407E
S1132100E1F700C000000E94C10A8EE097E00E943F
S1132110AB0A2FEF87EA91E6215080409040E1F727
S113212000C000000E94C10A85E197E00E94AB0A4A
S11321302FEF87EA91E6215080409040E1F700C0FC
S113214000000E94C10A89818F3F29F4CE010196C3
S11321500E948909F8CF0E946E0A2FEF83ED90E365
S1132160215080409040E1F700C000000E94C10A65
S113217083E297E00E94AB0A2FEF87EA91E62150B1
S113218080409040E1F700C000000E94C10A88E24C
S113219097E00E94AB0A2FEF87EA91E62150804036
S11321A09040E1F700C000000E94C10A8FEF8A83CB
S11321B08A818F3F29F4CE0102960E948909F8CFC3
S11321C00E946E0A2FEF83ED90E3215080409040EF
S11321D0E1F700C000000E94C10A89818133C1F483
S11321E09A819133A9F441E062E082E00E944501C2
S11321F08EE297E00E94AB0A2FEF87EA91E6215026
S113220080409040E1F700C000000E94C10A8DC0E8
S11322108233C1F49A819133A9F441E067E082E00A
S11322200E9445018EE297E00E94AB0A2FEF87EAF5
S113223091E6215080409040E1F700C000000E94E8
S1132240C10A73C0863309F070C08A81813309F0F2
S11322506CC088E397E00E94AB0A2FEF87EA91E60F
S1132260215080409040E1F700C000000E94C10A64
S113227086E497E00E94AB0A60E081E00E945D0A78
S113228085E597E00E94AB0A2FEF87EA91E621509B
S113229080409040E1F700C000000E94C10A84E63B
S11322A097E00E94AB0A60E081E00E945D0A8FEF34
S11322B08B838B818F3F29F4CE0103960E94890979
S11322C0F8CF8333D9F028F4813341F0823371F0AD
S11322D02CC08433D9F0853309F127C00E94AF0D97
S11322E084E10E94B90D0E94A50D1FC00E94AF0D8C
S11322F088E20E94B90D0E94A50D17C00E94AF0D7F
S11323008CE30E94B90D0E94A50D0FC00E94AF0D71
S113231080E50E94B90D0E94A50D07C00E94AF0D73
S113232084E60E94B90D0E94A50D89818133C1F410
S11323309A819233A9F440E062E082E00E94450170
S11323408EE297E00E94AB0A2FEF87EA91E62150D4
S113235080409040E1F700C000000E94C10A35C0EF
S11323608233C1F49A819233A9F440E067E082E0B9
S11323700E9445018EE297E00E94AB0A2FEF87EAA4
S113238091E6215080409040E1F700C000000E9497
S1132390C10A1BC08633C9F48A818233B1F40E9416
S11323A0AF0D40E067E083E00E9445018EE297E0D4
S11323B00E94AB0A2FEF87EA91E6215080409040BB
S11323C0E1F700C000000E94C10A0F900F900F9027
S11323D0DF91CF9108958BE697E00E94AB0A2FEF2F
S11323E087EA91E6215080409040E1F700C0000068
S11323F00E94C10A109229080895CF93DF931F9277
S1132400CDB7DEB78FEF898385E797E00E94AB0AEB
S11324102FEF87EA91E6215080409040E1F700C019
S113242000000E94C10A85E897E00E94AB0A2FEFE2
S113243087EA91E6215080409040E1F700C0000017
S11324400E94C10A84E997E00E94AB0A2FEF87EA51
S113245091E6215080409040E1F700C000000E94C6
S1132460C10A8EE997E00E94AB0A2FEF87EA91E652
S1132470215080409040E1F700C000000E94C10A52
S113248089818F3F29F4CE0101960E948909F8CFF2
S11324900E946E0A2FEF83ED90E32150804090401C
S11324A0E1F700C000000E94C10A8981813319F05C
S11324B0823319F126C00E949C04873079F489EA9A
S11324C097E00E94410E88ED97E00E94410E0E9421
S11324D012090E9401098330E1F301C080E08130D8
S11324E021F40E941E1081E00FC0823061F48DEE51
S11324F097E00E94AB0A81E007C00E94EB1180E0E4
S113250003C081E001C081E00F90DF91CF91089575
S1132510CF930E941F0F813039F40E94FD11C82F00
S11325200E949400C111F9CFCF910895A1E21A2E0F
S1132530AA1BBB1BFD010DC0AA1FBB1FEE1FFF1F63
S1132540A217B307E407F50720F0A21BB30BE40BB3
S1132550F50B661F771F881F991F1A9469F76095FA
S11325607095809590959B01AC01BD01CF010895B4
S1132570EE0FFF1F0590F491E02D0994A29FB00186
S1132580B39FC001A39F700D811D1124911DB29FA3
S1112590700D811D1124911D0895F894FFCF44
S113259E033132334134353642373839432A302306
S11325AE4448656C6C6F212057656C636F6D6520B4
S11325BE746F20536D61727420486F6D650A0050FC
S11325CE6C6561736520656E7465722077686574D9
S11325DE68657220796F75206172652061646D691A
S11325EE6E206F72206120757365720A00313A4154
S11325FE646D696E20202020323A20557365720A6C
S113260E00536F7272792C20496E76616C69642066
S113261E50617373776F72640A00536F7272792C00
S113262E20496E76616C696420757365726E616D96
S113263E650A00536F7272792C20496E76616C694B
S113264E642070617373776F72640A00536F7272D1
S113265E792C2057726F6E6720496E7075740A005C
S113266E57656C636F6D650A0043686F6F73652001
S113267E746865207365727669636520796F752059
S113268E7769736820746F20646F0A00313A2044AE
S113269E6F6F720A00323A204C4544730A00333A83
S11326AE2041646420557365720A00343A204465EF
S11326BE6C65746520557365720A00353A204C6F4B
S11326CE67204F75740A00506C65617365207365DD
S11326DE6C65637420746865204C454420796F756D
S11326EE207769736820746F20636F6E74726F6CD9
S11326FE0A00313A204C454420310A00323A204C2B
S113270E454420320A00333A204C454420330A0013
S113271E343A204C454420340A00353A204C454482
S113272E20350A00363A2044696D6D696E67204C77
S113273E45440A00536F7272792C205573657220CA
S113274E416C7265616479204578697374730A000B
S113275E55736572205375636365737366756C6C1C
S113276E792061646465640A00557365722053753B
S113277E636365737366756C6C792044656C6574FC
S113278E65640A00536F7272792E20557365722038
S113279E4E6F7420466F756E640A0048656C6C6FDC
S11327AE2041646D696E0A00506C65617365206525
S11327BE6E74657220796F757220757365726E61B1
S11327CE6D653A200A0048656C6C6F20557365720E
S11327DE0A00506C6561736520656E7465722079AC
S11327EE6F75722070617373776F72640A00506C28
S11327FE6561736520656E74657220796F757220DC
S113280E757365726E616D650A00506C65617365F2
S113281E2073656C656374207468652074797065C3
S113282E206F66206F7065726174696F6E20796FA8
S113283E75207769736820746F20646F3A0A0031CB
S113284E3A204F70656E20446F6F720A00323A2040
S113285E436C6F736520446F6F720A00536F72720C
S113286E792E204F6E6C792041646D696E206973E8
S113287E20616C6C6F77656420746F20636F6E7467
S113288E726F6C20646F6F720A00506C65617365B1
S113289E20456E74657220746865206E65772075A8
S11328AE7365722773204944286D61782E39290A7D
S11328BE00536F7272792E204F6E6C792041646DC5
S11328CE696E20697320616C6C6F77656420746F18
S11328DE20637265617465206E6577207573657209
S11328EE0A00506C6561736520656E7465722074A0
S11328FE6865207573657227732049442074686176
S113290E7420796F75207769736820746F206465FD
S113291E6C6574650A00536F7272792E204F6E6C5B
S113292E792041646D696E20697320616C6C6F77D8
S113293E656420746F2064656C6574652061207510
S113294E7365720A004C6F67676564204F75742057
S113295E5375636365737366756C6C790A00536F94
S113296E7272792C57726F6E6720496E7075740A85
S113297E00446F6F72204F70656E656420537563EB
S113298E6365737366756C6C790A00446F6F72209D
S113299E436C6F73656420537563636573736675F7
S11329AE6C6C790A00313A204C45442031204F6E2C
S11329BE0A00323A204C45442031204F66660A0004
S11329CE313A204C45442032204F6E0A00323A20D0
S11329DE4C45442032204F66660A00506C65617384
S11329EE652043686F6F7365207468652062726931
S11329FE6768746E657373206F66204C45440A00D5
S1132A0E313A2030250A00323A203230250A00337A
S1132A1E3A203430250A00343A203630250A00355F
S1132A2E3A203830250A00363A20313030250A0053
S1132A3E4C45442031205475726E6564204F6E20CF
S1132A4E5375636365737366756C6C790A004C45D4
S1132A5E442031205475726E6564204F666620538F
S1132A6E75636365737366756C6C790A004C4544C3
S1132A7E2032205475726E6564204F6E2053756338
S1132A8E6365737366756C6C790A004C4544203229
S1132A9E205475726E6564204F66662053756363A9
S1132AAE65737366756C6C790A00536F7272792C48
S1132ABE2057726F6E6720496E70757400506C6586
S1132ACE61736520656E74657220746865206E6529
S1132ADE77207573657227732070617373776F72C5
S1132AEE643A0A004C454420313A204F6E004C455E
S1132AFE4420313A204F6666004C454420323A2039
S1132B0E4F6E004C454420323A204F6666004469AD
S1132B1E6D6D696E67204C45443A20300044696DF2
S1132B2E6D696E67204C45443A2032302500446965
S1132B3E6D6D696E67204C45443A2034302500444F
S1132B4E696D6D696E67204C45443A203630250018
S1132B5E44696D6D696E67204C45443A20383025C2
S1132B6E0044696D6D696E67204C45443A313030CE
S1132B7E2500446F6F7220436C6F73656400446F5D
S1132B8E6F72204F70656E65640031323303040535
S1132B9E0604050607466972737420456E747279CD
S1132BAE0057414E5420544F004C4F47494E3F005E
S1132BBE312E59657320202020322E4E6F0057453A
S1132BCE4C434F4D4520544F00534D4152542048D1
S1132BDE4F4D4500454E54455220555345522049BC
S1132BEE4400454E5445522050415353574F52447E
S1132BFE5B335D0057524F4E472050415353004CA8
S1132C0E4F47494E20535543434553530057524F54
S1132C1E4E472049440063686F6F7365204C4544EA
S1132C2E2000312E4C45443100322E4C45443200A6
S1132C3E332E4C45443300342E4C45443400352E4B
S1132C4E4C45443500362E44494D4D494E47204C93
S1132C5E454400312E4F4E00322E4F46460054410D
S1132C6E534B20444F4E450043484F4F534520424B
S1132C7E524947485400312E32302520202020322C
S1132C8E2E34302500332E36302520202020322EAF
S1132C9E38302500352E31303025005468616E6B86
S1132CAE20596F750063686F6F73652074686520B3
S1132CBE7461736B00312E636F6E74726F6C206C63
S1132CCE616D7000322E4C6F67206F7574006368EF
S1132CDE6F6F7365206E6F77005573657220776121
S1132CEE6E747320746F20636F6E74726F6C2061D8
S1132CFE204C45442E20446F20796F7520616C6CF6
S1132D0E6F772069743F0A00313A20596573202089
S1132D1E202020202020323A204E6F0A0041444DBC
S10F2D2E494E20524546555345440000D0
S9030000FC
